{
  "contractName": "BoxHub1",
  "abi": [
    {
      "inputs": [],
      "stateMutability": "nonpayable",
      "type": "constructor"
    },
    {
      "anonymous": false,
      "inputs": [
        {
          "indexed": true,
          "internalType": "uint256",
          "name": "boxId",
          "type": "uint256"
        },
        {
          "indexed": true,
          "internalType": "address",
          "name": "buyer",
          "type": "address"
        },
        {
          "indexed": false,
          "internalType": "uint256",
          "name": "boxType",
          "type": "uint256"
        },
        {
          "indexed": false,
          "internalType": "uint256",
          "name": "price",
          "type": "uint256"
        },
        {
          "indexed": false,
          "internalType": "address",
          "name": "paymentToken",
          "type": "address"
        }
      ],
      "name": "BoxPaid",
      "type": "event"
    },
    {
      "anonymous": false,
      "inputs": [
        {
          "indexed": true,
          "internalType": "address",
          "name": "previousOwner",
          "type": "address"
        },
        {
          "indexed": true,
          "internalType": "address",
          "name": "newOwner",
          "type": "address"
        }
      ],
      "name": "OwnershipTransferred",
      "type": "event"
    },
    {
      "inputs": [
        {
          "internalType": "bytes32",
          "name": "_messageHash",
          "type": "bytes32"
        }
      ],
      "name": "getEthSignedMessageHash",
      "outputs": [
        {
          "internalType": "bytes32",
          "name": "",
          "type": "bytes32"
        }
      ],
      "stateMutability": "pure",
      "type": "function"
    },
    {
      "inputs": [],
      "name": "owner",
      "outputs": [
        {
          "internalType": "address",
          "name": "",
          "type": "address"
        }
      ],
      "stateMutability": "view",
      "type": "function"
    },
    {
      "inputs": [],
      "name": "paymentReceivedAddress",
      "outputs": [
        {
          "internalType": "address",
          "name": "",
          "type": "address"
        }
      ],
      "stateMutability": "view",
      "type": "function"
    },
    {
      "inputs": [],
      "name": "platformCommission",
      "outputs": [
        {
          "internalType": "uint256",
          "name": "",
          "type": "uint256"
        }
      ],
      "stateMutability": "view",
      "type": "function"
    },
    {
      "inputs": [
        {
          "internalType": "bytes32",
          "name": "_ethSignedMessageHash",
          "type": "bytes32"
        },
        {
          "internalType": "bytes",
          "name": "_signature",
          "type": "bytes"
        }
      ],
      "name": "recoverSigner",
      "outputs": [
        {
          "internalType": "address",
          "name": "",
          "type": "address"
        }
      ],
      "stateMutability": "pure",
      "type": "function"
    },
    {
      "inputs": [],
      "name": "renounceOwnership",
      "outputs": [],
      "stateMutability": "nonpayable",
      "type": "function"
    },
    {
      "inputs": [
        {
          "internalType": "bytes",
          "name": "sig",
          "type": "bytes"
        }
      ],
      "name": "splitSignature",
      "outputs": [
        {
          "internalType": "bytes32",
          "name": "r",
          "type": "bytes32"
        },
        {
          "internalType": "bytes32",
          "name": "s",
          "type": "bytes32"
        },
        {
          "internalType": "uint8",
          "name": "v",
          "type": "uint8"
        }
      ],
      "stateMutability": "pure",
      "type": "function"
    },
    {
      "inputs": [
        {
          "internalType": "address",
          "name": "newOwner",
          "type": "address"
        }
      ],
      "name": "transferOwnership",
      "outputs": [],
      "stateMutability": "nonpayable",
      "type": "function"
    },
    {
      "inputs": [
        {
          "internalType": "address",
          "name": "_paymentReceivedAddress",
          "type": "address"
        }
      ],
      "name": "setPaymentReceivedAddress",
      "outputs": [],
      "stateMutability": "nonpayable",
      "type": "function"
    },
    {
      "inputs": [
        {
          "internalType": "uint256",
          "name": "_platformCommission",
          "type": "uint256"
        }
      ],
      "name": "updatePlatformCommision",
      "outputs": [],
      "stateMutability": "nonpayable",
      "type": "function"
    },
    {
      "inputs": [
        {
          "internalType": "uint256",
          "name": "boxId",
          "type": "uint256"
        },
        {
          "internalType": "uint256",
          "name": "_type",
          "type": "uint256"
        },
        {
          "internalType": "address",
          "name": "userAddress",
          "type": "address"
        },
        {
          "internalType": "uint256",
          "name": "price",
          "type": "uint256"
        },
        {
          "internalType": "address",
          "name": "paymentErc20",
          "type": "address"
        },
        {
          "internalType": "bytes",
          "name": "signature",
          "type": "bytes"
        }
      ],
      "name": "buyBoxWithSignature",
      "outputs": [],
      "stateMutability": "nonpayable",
      "type": "function"
    },
    {
      "inputs": [
        {
          "internalType": "uint256",
          "name": "boxId",
          "type": "uint256"
        },
        {
          "internalType": "uint256",
          "name": "boxType",
          "type": "uint256"
        },
        {
          "internalType": "address",
          "name": "boxOwner",
          "type": "address"
        },
        {
          "internalType": "address",
          "name": "boxReciever",
          "type": "address"
        },
        {
          "internalType": "address",
          "name": "paymentErc20",
          "type": "address"
        },
        {
          "internalType": "uint256",
          "name": "price",
          "type": "uint256"
        }
      ],
      "name": "TransferBox",
      "outputs": [],
      "stateMutability": "nonpayable",
      "type": "function"
    },
    {
      "inputs": [
        {
          "internalType": "uint256",
          "name": "_boxType",
          "type": "uint256"
        },
        {
          "internalType": "uint256",
          "name": "_price",
          "type": "uint256"
        }
      ],
      "name": "getMessageHash",
      "outputs": [
        {
          "internalType": "bytes32",
          "name": "",
          "type": "bytes32"
        }
      ],
      "stateMutability": "pure",
      "type": "function"
    }
  ],
  "bytecode": "0x608060405234801561001057600080fd5b5061002d61002261007a60201b60201c565b61008260201b60201c565b33600160006101000a81548173ffffffffffffffffffffffffffffffffffffffff021916908373ffffffffffffffffffffffffffffffffffffffff16021790555060028081905550610146565b600033905090565b60008060009054906101000a900473ffffffffffffffffffffffffffffffffffffffff169050816000806101000a81548173ffffffffffffffffffffffffffffffffffffffff021916908373ffffffffffffffffffffffffffffffffffffffff1602179055508173ffffffffffffffffffffffffffffffffffffffff168173ffffffffffffffffffffffffffffffffffffffff167f8be0079c531659141344cd1fd0a4f28419497f9722a3daafe3b4186f6b6457e060405160405180910390a35050565b61211e80620001566000396000f3fe608060405234801561001057600080fd5b50600436106100cf5760003560e01c80638da5cb5b1161008c578063db3d934511610066578063db3d934514610202578063f2fde38b1461021e578063fa5408011461023a578063fedd23c91461026a576100cf565b80638da5cb5b1461018257806397aba7f9146101a0578063a7bb5803146101d0576100cf565b806312905ef9146100d457806340508820146100f257806348af22a71461010e578063694e91b81461012a578063715018a614610148578063734e630814610152575b600080fd5b6100dc610286565b6040516100e991906117da565b60405180910390f35b61010c60048036038101906101079190611452565b6102ac565b005b6101286004803603810190610123919061122b565b610653565b005b610132610713565b60405161013f9190611a6e565b60405180910390f35b610150610719565b005b61016c6004803603810190610167919061138d565b6107a1565b6040516101799190611855565b60405180910390f35b61018a6107d4565b60405161019791906117da565b60405180910390f35b6101ba60048036038101906101b591906112a6565b6107fd565b6040516101c791906117da565b60405180910390f35b6101ea60048036038101906101e591906112fa565b61086c565b6040516101f993929190611870565b60405180910390f35b61021c600480360381019061021791906113c9565b6108d4565b005b6102386004803603810190610233919061122b565b610b87565b005b610254600480360381019061024f919061127d565b610c7f565b6040516102619190611855565b60405180910390f35b610284600480360381019061027f919061133b565b610caf565b005b600160009054906101000a900473ffffffffffffffffffffffffffffffffffffffff1681565b6102b4610d35565b73ffffffffffffffffffffffffffffffffffffffff166102d26107d4565b73ffffffffffffffffffffffffffffffffffffffff1614610328576040517f08c379a000000000000000000000000000000000000000000000000000000000815260040161031f906119ae565b60405180910390fd5b61033185610d3d565b15610371576040517f08c379a00000000000000000000000000000000000000000000000000000000081526004016103689061196e565b60405180910390fd5b600586106103b4576040517f08c379a00000000000000000000000000000000000000000000000000000000081526004016103ab9061198e565b60405180910390fd5b600084116103f7576040517f08c379a00000000000000000000000000000000000000000000000000000000081526004016103ee906119ce565b60405180910390fd5b600061040387866107a1565b9050600061041082610c7f565b90508673ffffffffffffffffffffffffffffffffffffffff166104778286868080601f016020809104026020016040519081016040528093929190818152602001838380828437600081840152601f19601f820116905080830192505050505050506107fd565b73ffffffffffffffffffffffffffffffffffffffff16146104cd576040517f08c379a00000000000000000000000000000000000000000000000000000000081526004016104c4906119ee565b60405180910390fd5b600085905060008173ffffffffffffffffffffffffffffffffffffffff1663dd62ed3e8a306040518363ffffffff1660e01b815260040161050f9291906117f5565b60206040518083038186803b15801561052757600080fd5b505afa15801561053b573d6000803e3d6000fd5b505050506040513d601f19601f8201168201806040525081019061055f9190611364565b9050878110156105a4576040517f08c379a000000000000000000000000000000000000000000000000000000000815260040161059b9061192e565b60405180910390fd5b6105f389600160009054906101000a900473ffffffffffffffffffffffffffffffffffffffff168a8573ffffffffffffffffffffffffffffffffffffffff16610d56909392919063ffffffff16565b8873ffffffffffffffffffffffffffffffffffffffff168b7fca6b6b3332a4ca1d36cc620c337ce38fd836db6ca17453b0184db31a5119f3378c8b8b60405161063e93929190611a89565b60405180910390a35050505050505050505050565b61065b610d35565b73ffffffffffffffffffffffffffffffffffffffff166106796107d4565b73ffffffffffffffffffffffffffffffffffffffff16146106cf576040517f08c379a00000000000000000000000000000000000000000000000000000000081526004016106c6906119ae565b60405180910390fd5b80600160006101000a81548173ffffffffffffffffffffffffffffffffffffffff021916908373ffffffffffffffffffffffffffffffffffffffff16021790555050565b60025481565b610721610d35565b73ffffffffffffffffffffffffffffffffffffffff1661073f6107d4565b73ffffffffffffffffffffffffffffffffffffffff1614610795576040517f08c379a000000000000000000000000000000000000000000000000000000000815260040161078c906119ae565b60405180910390fd5b61079f6000610ddf565b565b600082826040516020016107b69291906117ae565b60405160208183030381529060405280519060200120905092915050565b60008060009054906101000a900473ffffffffffffffffffffffffffffffffffffffff16905090565b60008060008061080c8561086c565b9250925092506001868285856040516000815260200160405260405161083594939291906118a7565b6020604051602081039080840390855afa158015610857573d6000803e3d6000fd5b50505060206040510351935050505092915050565b600080600060418451146108b5576040517f08c379a00000000000000000000000000000000000000000000000000000000081526004016108ac90611a2e565b60405180910390fd5b6020840151925060408401519150606084015160001a90509193909250565b6108dc610d35565b73ffffffffffffffffffffffffffffffffffffffff166108fa6107d4565b73ffffffffffffffffffffffffffffffffffffffff1614610950576040517f08c379a0000000000000000000000000000000000000000000000000000000008152600401610947906119ae565b60405180910390fd5b61095983610d3d565b15610999576040517f08c379a00000000000000000000000000000000000000000000000000000000081526004016109909061196e565b60405180910390fd5b600082905060008173ffffffffffffffffffffffffffffffffffffffff1663dd62ed3e86306040518363ffffffff1660e01b81526004016109db9291906117f5565b60206040518083038186803b1580156109f357600080fd5b505afa158015610a07573d6000803e3d6000fd5b505050506040513d601f19601f82011682018060405250810190610a2b9190611364565b905082811015610a70576040517f08c379a0000000000000000000000000000000000000000000000000000000008152600401610a679061192e565b60405180910390fd5b610ac2858760646002546064610a869190611bde565b87610a919190611b84565b610a9b9190611b53565b8573ffffffffffffffffffffffffffffffffffffffff16610d56909392919063ffffffff16565b610b2a85600160009054906101000a900473ffffffffffffffffffffffffffffffffffffffff16606460025487610af99190611b84565b610b039190611b53565b8573ffffffffffffffffffffffffffffffffffffffff16610d56909392919063ffffffff16565b8473ffffffffffffffffffffffffffffffffffffffff16887fca6b6b3332a4ca1d36cc620c337ce38fd836db6ca17453b0184db31a5119f337898688604051610b7593929190611a89565b60405180910390a35050505050505050565b610b8f610d35565b73ffffffffffffffffffffffffffffffffffffffff16610bad6107d4565b73ffffffffffffffffffffffffffffffffffffffff1614610c03576040517f08c379a0000000000000000000000000000000000000000000000000000000008152600401610bfa906119ae565b60405180910390fd5b600073ffffffffffffffffffffffffffffffffffffffff168173ffffffffffffffffffffffffffffffffffffffff161415610c73576040517f08c379a0000000000000000000000000000000000000000000000000000000008152600401610c6a9061190e565b60405180910390fd5b610c7c81610ddf565b50565b600081604051602001610c929190611788565b604051602081830303815290604052805190602001209050919050565b610cb7610d35565b73ffffffffffffffffffffffffffffffffffffffff16610cd56107d4565b73ffffffffffffffffffffffffffffffffffffffff1614610d2b576040517f08c379a0000000000000000000000000000000000000000000000000000000008152600401610d22906119ae565b60405180910390fd5b8060028190555050565b600033905090565b600080823b905060008163ffffffff1611915050919050565b610dd9846323b872dd60e01b858585604051602401610d779392919061181e565b604051602081830303815290604052907bffffffffffffffffffffffffffffffffffffffffffffffffffffffff19166020820180517bffffffffffffffffffffffffffffffffffffffffffffffffffffffff8381831617835250505050610ea3565b50505050565b60008060009054906101000a900473ffffffffffffffffffffffffffffffffffffffff169050816000806101000a81548173ffffffffffffffffffffffffffffffffffffffff021916908373ffffffffffffffffffffffffffffffffffffffff1602179055508173ffffffffffffffffffffffffffffffffffffffff168173ffffffffffffffffffffffffffffffffffffffff167f8be0079c531659141344cd1fd0a4f28419497f9722a3daafe3b4186f6b6457e060405160405180910390a35050565b6000610f05826040518060400160405280602081526020017f5361666545524332303a206c6f772d6c6576656c2063616c6c206661696c65648152508573ffffffffffffffffffffffffffffffffffffffff16610f6a9092919063ffffffff16565b9050600081511115610f655780806020019051810190610f259190611254565b610f64576040517f08c379a0000000000000000000000000000000000000000000000000000000008152600401610f5b90611a4e565b60405180910390fd5b5b505050565b6060610f798484600085610f82565b90509392505050565b606082471015610fc7576040517f08c379a0000000000000000000000000000000000000000000000000000000008152600401610fbe9061194e565b60405180910390fd5b610fd085611096565b61100f576040517f08c379a000000000000000000000000000000000000000000000000000000000815260040161100690611a0e565b60405180910390fd5b6000808673ffffffffffffffffffffffffffffffffffffffff1685876040516110389190611771565b60006040518083038185875af1925050503d8060008114611075576040519150601f19603f3d011682016040523d82523d6000602084013e61107a565b606091505b509150915061108a8282866110a9565b92505050949350505050565b600080823b905060008111915050919050565b606083156110b957829050611109565b6000835111156110cc5782518084602001fd5b816040517f08c379a000000000000000000000000000000000000000000000000000000000815260040161110091906118ec565b60405180910390fd5b9392505050565b600061112361111e84611ae5565b611ac0565b90508281526020810184848401111561113b57600080fd5b611146848285611c71565b509392505050565b60008135905061115d8161208c565b92915050565b600081519050611172816120a3565b92915050565b600081359050611187816120ba565b92915050565b60008083601f84011261119f57600080fd5b8235905067ffffffffffffffff8111156111b857600080fd5b6020830191508360018202830111156111d057600080fd5b9250929050565b600082601f8301126111e857600080fd5b81356111f8848260208601611110565b91505092915050565b600081359050611210816120d1565b92915050565b600081519050611225816120d1565b92915050565b60006020828403121561123d57600080fd5b600061124b8482850161114e565b91505092915050565b60006020828403121561126657600080fd5b600061127484828501611163565b91505092915050565b60006020828403121561128f57600080fd5b600061129d84828501611178565b91505092915050565b600080604083850312156112b957600080fd5b60006112c785828601611178565b925050602083013567ffffffffffffffff8111156112e457600080fd5b6112f0858286016111d7565b9150509250929050565b60006020828403121561130c57600080fd5b600082013567ffffffffffffffff81111561132657600080fd5b611332848285016111d7565b91505092915050565b60006020828403121561134d57600080fd5b600061135b84828501611201565b91505092915050565b60006020828403121561137657600080fd5b600061138484828501611216565b91505092915050565b600080604083850312156113a057600080fd5b60006113ae85828601611201565b92505060206113bf85828601611201565b9150509250929050565b60008060008060008060c087890312156113e257600080fd5b60006113f089828a01611201565b965050602061140189828a01611201565b955050604061141289828a0161114e565b945050606061142389828a0161114e565b935050608061143489828a0161114e565b92505060a061144589828a01611201565b9150509295509295509295565b600080600080600080600060c0888a03121561146d57600080fd5b600061147b8a828b01611201565b975050602061148c8a828b01611201565b965050604061149d8a828b0161114e565b95505060606114ae8a828b01611201565b94505060806114bf8a828b0161114e565b93505060a088013567ffffffffffffffff8111156114dc57600080fd5b6114e88a828b0161118d565b925092505092959891949750929550565b61150281611c12565b82525050565b61151181611c30565b82525050565b61152861152382611c30565b611ce4565b82525050565b600061153982611b16565b6115438185611b2c565b9350611553818560208601611c80565b80840191505092915050565b600061156a82611b21565b6115748185611b37565b9350611584818560208601611c80565b61158d81611d85565b840191505092915050565b60006115a5601c83611b48565b91506115b082611d96565b601c82019050919050565b60006115c8602683611b37565b91506115d382611dbf565b604082019050919050565b60006115eb602383611b37565b91506115f682611e0e565b604082019050919050565b600061160e602683611b37565b915061161982611e5d565b604082019050919050565b6000611631603383611b37565b915061163c82611eac565b604082019050919050565b6000611654601c83611b37565b915061165f82611efb565b602082019050919050565b6000611677602083611b37565b915061168282611f24565b602082019050919050565b600061169a602283611b37565b91506116a582611f4d565b604082019050919050565b60006116bd602383611b37565b91506116c882611f9c565b604082019050919050565b60006116e0601d83611b37565b91506116eb82611feb565b602082019050919050565b6000611703601883611b37565b915061170e82612014565b602082019050919050565b6000611726602a83611b37565b91506117318261203d565b604082019050919050565b61174581611c5a565b82525050565b61175c61175782611c5a565b611cee565b82525050565b61176b81611c64565b82525050565b600061177d828461152e565b915081905092915050565b600061179382611598565b915061179f8284611517565b60208201915081905092915050565b60006117ba828561174b565b6020820191506117ca828461174b565b6020820191508190509392505050565b60006020820190506117ef60008301846114f9565b92915050565b600060408201905061180a60008301856114f9565b61181760208301846114f9565b9392505050565b600060608201905061183360008301866114f9565b61184060208301856114f9565b61184d604083018461173c565b949350505050565b600060208201905061186a6000830184611508565b92915050565b60006060820190506118856000830186611508565b6118926020830185611508565b61189f6040830184611762565b949350505050565b60006080820190506118bc6000830187611508565b6118c96020830186611762565b6118d66040830185611508565b6118e36060830184611508565b95945050505050565b60006020820190508181036000830152611906818461155f565b905092915050565b60006020820190508181036000830152611927816115bb565b9050919050565b60006020820190508181036000830152611947816115de565b9050919050565b6000602082019050818103600083015261196781611601565b9050919050565b6000602082019050818103600083015261198781611624565b9050919050565b600060208201905081810360008301526119a781611647565b9050919050565b600060208201905081810360008301526119c78161166a565b9050919050565b600060208201905081810360008301526119e78161168d565b9050919050565b60006020820190508181036000830152611a07816116b0565b9050919050565b60006020820190508181036000830152611a27816116d3565b9050919050565b60006020820190508181036000830152611a47816116f6565b9050919050565b60006020820190508181036000830152611a6781611719565b9050919050565b6000602082019050611a83600083018461173c565b92915050565b6000606082019050611a9e600083018661173c565b611aab602083018561173c565b611ab860408301846114f9565b949350505050565b6000611aca611adb565b9050611ad68282611cb3565b919050565b6000604051905090565b600067ffffffffffffffff821115611b0057611aff611d56565b5b611b0982611d85565b9050602081019050919050565b600081519050919050565b600081519050919050565b600081905092915050565b600082825260208201905092915050565b600081905092915050565b6000611b5e82611c5a565b9150611b6983611c5a565b925082611b7957611b78611d27565b5b828204905092915050565b6000611b8f82611c5a565b9150611b9a83611c5a565b9250817fffffffffffffffffffffffffffffffffffffffffffffffffffffffffffffffff0483118215151615611bd357611bd2611cf8565b5b828202905092915050565b6000611be982611c5a565b9150611bf483611c5a565b925082821015611c0757611c06611cf8565b5b828203905092915050565b6000611c1d82611c3a565b9050919050565b60008115159050919050565b6000819050919050565b600073ffffffffffffffffffffffffffffffffffffffff82169050919050565b6000819050919050565b600060ff82169050919050565b82818337600083830152505050565b60005b83811015611c9e578082015181840152602081019050611c83565b83811115611cad576000848401525b50505050565b611cbc82611d85565b810181811067ffffffffffffffff82111715611cdb57611cda611d56565b5b80604052505050565b6000819050919050565b6000819050919050565b7f4e487b7100000000000000000000000000000000000000000000000000000000600052601160045260246000fd5b7f4e487b7100000000000000000000000000000000000000000000000000000000600052601260045260246000fd5b7f4e487b7100000000000000000000000000000000000000000000000000000000600052604160045260246000fd5b6000601f19601f8301169050919050565b7f19457468657265756d205369676e6564204d6573736167653a0a333200000000600082015250565b7f4f776e61626c653a206e6577206f776e657220697320746865207a65726f206160008201527f6464726573730000000000000000000000000000000000000000000000000000602082015250565b7f426f785061796d656e743a20496e76616c696420746f6b656e20616c6c6f776160008201527f6e63650000000000000000000000000000000000000000000000000000000000602082015250565b7f416464726573733a20696e73756666696369656e742062616c616e636520666f60008201527f722063616c6c0000000000000000000000000000000000000000000000000000602082015250565b7f426f785061796d656e743a204f6e6c792075736572206164647265737320697360008201527f20616c6c6f77656420746f2062757920626f7800000000000000000000000000602082015250565b7f426f785061796d656e743a20496e76616c696420626f78207479706500000000600082015250565b7f4f776e61626c653a2063616c6c6572206973206e6f7420746865206f776e6572600082015250565b7f426f785061796d656e743a20496e76616c6964207061796d656e7420616d6f7560008201527f6e74000000000000000000000000000000000000000000000000000000000000602082015250565b7f426f785061796d656e743a20696e76616c6964206275796572207369676e617460008201527f7572650000000000000000000000000000000000000000000000000000000000602082015250565b7f416464726573733a2063616c6c20746f206e6f6e2d636f6e7472616374000000600082015250565b7f696e76616c6964207369676e6174757265206c656e6774680000000000000000600082015250565b7f5361666545524332303a204552433230206f7065726174696f6e20646964206e60008201527f6f74207375636365656400000000000000000000000000000000000000000000602082015250565b61209581611c12565b81146120a057600080fd5b50565b6120ac81611c24565b81146120b757600080fd5b50565b6120c381611c30565b81146120ce57600080fd5b50565b6120da81611c5a565b81146120e557600080fd5b5056fea2646970667358221220063823ae02f62fc667cca3932eaa594ce8cf84e5156ca979a22e13e9c2eefc1f64736f6c63430008040033",
  "immutableReferences": {},
  "source": "// SPDX-License-Identifier: MIT\r\npragma solidity ^0.8.0;\r\n\r\nimport \"@openzeppelin/contracts/token/ERC20/IERC20.sol\";\r\nimport \"@openzeppelin/contracts/token/ERC20/utils/SafeERC20.sol\";\r\nimport \"@openzeppelin/contracts/access/Ownable.sol\";\r\nimport \"./HasSignature.sol\";\r\n\r\ncontract BoxHub1 is Ownable, HasSignature {\r\n    using SafeERC20 for IERC20;\r\n\r\n    event BoxPaid(\r\n        uint256 indexed boxId,\r\n        address indexed buyer,\r\n        uint256 boxType,\r\n        uint256 price,\r\n        address paymentToken\r\n    );\r\n\r\n    address public paymentReceivedAddress;\r\n    uint256 public platformCommission;\r\n\r\n    constructor() {\r\n        paymentReceivedAddress = msg.sender;\r\n        platformCommission = 2;\r\n    }\r\n\r\n    function setPaymentReceivedAddress(address _paymentReceivedAddress)\r\n        public\r\n        onlyOwner\r\n    {\r\n        paymentReceivedAddress = _paymentReceivedAddress;\r\n    }\r\n\r\n    function updatePlatformCommision(uint256 _platformCommission)\r\n        public\r\n        onlyOwner\r\n    {\r\n        platformCommission = _platformCommission;\r\n    }\r\n\r\n    /**\r\n     * @dev  box payment buy function\r\n     */\r\n    function buyBoxWithSignature(\r\n        uint256 boxId,\r\n        uint256 _type,\r\n        address userAddress,\r\n        uint256 price,\r\n        address paymentErc20,\r\n        bytes calldata signature\r\n    )\r\n        external\r\n        // bytes calldata signature\r\n        onlyOwner\r\n    {\r\n        require(\r\n            !isContract(userAddress),\r\n            \"BoxPayment: Only user address is allowed to buy box\"\r\n        );\r\n        require(_type < 5, \"BoxPayment: Invalid box type\");\r\n        require(price > 0, \"BoxPayment: Invalid payment amount\");\r\n        bytes32 criteriaMessageHash = getMessageHash(_type, price);\r\n\r\n        bytes32 ethSignedMessageHash = getEthSignedMessageHash(\r\n            criteriaMessageHash\r\n        );\r\n\r\n        require(\r\n            recoverSigner(ethSignedMessageHash, signature) == userAddress,\r\n            \"BoxPayment: invalid buyer signature\"\r\n        );\r\n\r\n        IERC20 paymentToken = IERC20(paymentErc20);\r\n        uint256 allowToPayAmount = paymentToken.allowance(\r\n            userAddress,\r\n            address(this)\r\n        );\r\n        require(\r\n            allowToPayAmount >= price,\r\n            \"BoxPayment: Invalid token allowance\"\r\n        );\r\n        // Transfer payment\r\n        paymentToken.safeTransferFrom(\r\n            userAddress,\r\n            paymentReceivedAddress,\r\n            price\r\n        );\r\n        // Emit payment event\r\n        emit BoxPaid(boxId, userAddress, _type, price, paymentErc20);\r\n    }\r\n\r\n    function TransferBox(\r\n        uint256 boxId,\r\n        uint256 boxType,\r\n        address boxOwner,\r\n        address boxReciever,\r\n        address paymentErc20,\r\n        uint256 price\r\n    ) external onlyOwner {\r\n        // require(boxOwner == msg.sender, \"only a box owner can call this function\");\r\n        require(\r\n            !isContract(boxReciever),\r\n            \"BoxPayment: Only user address is allowed to buy box\"\r\n        );\r\n\r\n        IERC20 paymentToken = IERC20(paymentErc20);\r\n        uint256 allowToPayAmount = paymentToken.allowance(\r\n            boxReciever,\r\n            address(this)\r\n        );\r\n        require(\r\n            allowToPayAmount >= price,\r\n            \"BoxPayment: Invalid token allowance\"\r\n        );\r\n\r\n        paymentToken.safeTransferFrom(\r\n            boxReciever,\r\n            boxOwner,\r\n            ((price * (100 - platformCommission)) / 100)\r\n        );\r\n        paymentToken.safeTransferFrom(\r\n            boxReciever,\r\n            paymentReceivedAddress,\r\n            (price * platformCommission) / 100\r\n        );\r\n\r\n        emit BoxPaid(boxId, boxReciever, boxType, price, paymentErc20);\r\n    }\r\n\r\n    function getMessageHash(uint256 _boxType, uint256 _price)\r\n        public\r\n        pure\r\n        returns (bytes32)\r\n    {\r\n        return keccak256(abi.encodePacked(_boxType, _price));\r\n    }\r\n\r\n    /**\r\n     * @dev Identify an address is user address or contract address\r\n     */\r\n    function isContract(address _address) private view returns (bool) {\r\n        uint32 size;\r\n        assembly {\r\n            size := extcodesize(_address)\r\n        }\r\n        return (size > 0);\r\n    }\r\n}\r\n",
  "sourcePath": "D:\\Desktop\\immense\\crypto\\defi application\\test (NFT marketplace)\\NFT game\\src\\contracts\\BuyBox1.sol",
  "compiler": {
    "name": "solc",
    "version": "0.8.4+commit.c7e474f2.Emscripten.clang"
  },
  "schemaVersion": "3.4.7",
  "updatedAt": "2022-06-29T16:37:31.175Z",
  "networkType": "ethereum",
  "devdoc": {
    "kind": "dev",
    "methods": {
      "buyBoxWithSignature(uint256,uint256,address,uint256,address,bytes)": {
        "details": "box payment buy function"
      },
      "owner()": {
        "details": "Returns the address of the current owner."
      },
      "renounceOwnership()": {
        "details": "Leaves the contract without owner. It will not be possible to call `onlyOwner` functions anymore. Can only be called by the current owner. NOTE: Renouncing ownership will leave the contract without an owner, thereby removing any functionality that is only available to the owner."
      },
      "transferOwnership(address)": {
        "details": "Transfers ownership of the contract to a new account (`newOwner`). Can only be called by the current owner."
      }
    },
    "version": 1
  },
  "userdoc": {
    "kind": "user",
    "methods": {},
    "version": 1
  }
}