{
  "contractName": "HasSignature",
  "abi": [
    {
      "inputs": [
        {
          "internalType": "bytes32",
          "name": "_messageHash",
          "type": "bytes32"
        }
      ],
      "name": "getEthSignedMessageHash",
      "outputs": [
        {
          "internalType": "bytes32",
          "name": "",
          "type": "bytes32"
        }
      ],
      "stateMutability": "pure",
      "type": "function"
    },
    {
      "inputs": [
        {
          "internalType": "bytes32",
          "name": "_ethSignedMessageHash",
          "type": "bytes32"
        },
        {
          "internalType": "bytes",
          "name": "_signature",
          "type": "bytes"
        }
      ],
      "name": "recoverSigner",
      "outputs": [
        {
          "internalType": "address",
          "name": "",
          "type": "address"
        }
      ],
      "stateMutability": "pure",
      "type": "function"
    },
    {
      "inputs": [
        {
          "internalType": "bytes",
          "name": "sig",
          "type": "bytes"
        }
      ],
      "name": "splitSignature",
      "outputs": [
        {
          "internalType": "bytes32",
          "name": "r",
          "type": "bytes32"
        },
        {
          "internalType": "bytes32",
          "name": "s",
          "type": "bytes32"
        },
        {
          "internalType": "uint8",
          "name": "v",
          "type": "uint8"
        }
      ],
      "stateMutability": "pure",
      "type": "function"
    }
  ],
  "bytecode": "0x608060405234801561001057600080fd5b50610680806100206000396000f3fe608060405234801561001057600080fd5b50600436106100415760003560e01c806397aba7f914610046578063a7bb580314610076578063fa540801146100a8575b600080fd5b610060600480360381019061005b9190610285565b6100d8565b60405161006d91906103ca565b60405180910390f35b610090600480360381019061008b91906102d9565b610147565b60405161009f93929190610400565b60405180910390f35b6100c260048036038101906100bd919061025c565b6101af565b6040516100cf91906103e5565b60405180910390f35b6000806000806100e785610147565b925092509250600186828585604051600081526020016040526040516101109493929190610437565b6020604051602081039080840390855afa158015610132573d6000803e3d6000fd5b50505060206040510351935050505092915050565b60008060006041845114610190576040517f08c379a00000000000000000000000000000000000000000000000000000000081526004016101879061047c565b60405180910390fd5b6020840151925060408401519150606084015160001a90509193909250565b6000816040516020016101c291906103a4565b604051602081830303815290604052805190602001209050919050565b60006101f26101ed846104c1565b61049c565b90508281526020810184848401111561020a57600080fd5b610215848285610557565b509392505050565b60008135905061022c81610633565b92915050565b600082601f83011261024357600080fd5b81356102538482602086016101df565b91505092915050565b60006020828403121561026e57600080fd5b600061027c8482850161021d565b91505092915050565b6000806040838503121561029857600080fd5b60006102a68582860161021d565b925050602083013567ffffffffffffffff8111156102c357600080fd5b6102cf85828601610232565b9150509250929050565b6000602082840312156102eb57600080fd5b600082013567ffffffffffffffff81111561030557600080fd5b61031184828501610232565b91505092915050565b6103238161050e565b82525050565b61033281610520565b82525050565b61034961034482610520565b610597565b82525050565b600061035c601c83610503565b9150610367826105e1565b601c82019050919050565b600061037f6018836104f2565b915061038a8261060a565b602082019050919050565b61039e8161054a565b82525050565b60006103af8261034f565b91506103bb8284610338565b60208201915081905092915050565b60006020820190506103df600083018461031a565b92915050565b60006020820190506103fa6000830184610329565b92915050565b60006060820190506104156000830186610329565b6104226020830185610329565b61042f6040830184610395565b949350505050565b600060808201905061044c6000830187610329565b6104596020830186610395565b6104666040830185610329565b6104736060830184610329565b95945050505050565b6000602082019050818103600083015261049581610372565b9050919050565b60006104a66104b7565b90506104b28282610566565b919050565b6000604051905090565b600067ffffffffffffffff8211156104dc576104db6105a1565b5b6104e5826105d0565b9050602081019050919050565b600082825260208201905092915050565b600081905092915050565b60006105198261052a565b9050919050565b6000819050919050565b600073ffffffffffffffffffffffffffffffffffffffff82169050919050565b600060ff82169050919050565b82818337600083830152505050565b61056f826105d0565b810181811067ffffffffffffffff8211171561058e5761058d6105a1565b5b80604052505050565b6000819050919050565b7f4e487b7100000000000000000000000000000000000000000000000000000000600052604160045260246000fd5b6000601f19601f8301169050919050565b7f19457468657265756d205369676e6564204d6573736167653a0a333200000000600082015250565b7f696e76616c6964207369676e6174757265206c656e6774680000000000000000600082015250565b61063c81610520565b811461064757600080fd5b5056fea26469706673582212208e470108e9eda130c80524126d7c2b4f1ba1d2eff5788a784460009d37812c8b64736f6c63430008040033",
  "immutableReferences": {},
  "source": "// SPDX-License-Identifier: MIT\r\npragma solidity ^0.8.0;\r\n\r\ncontract HasSignature {\r\n    function getEthSignedMessageHash(bytes32 _messageHash)\r\n        public\r\n        pure\r\n        returns (bytes32)\r\n    {\r\n        /*\r\n        Signature is produced by signing a keccak256 hash with the following format:\r\n        \"\\x19Ethereum Signed Message\\n\" + len(msg) + msg\r\n        */\r\n        return\r\n            keccak256(\r\n                abi.encodePacked(\r\n                    \"\\x19Ethereum Signed Message:\\n32\",\r\n                    _messageHash\r\n                )\r\n            );\r\n    }\r\n\r\n    function recoverSigner(\r\n        bytes32 _ethSignedMessageHash,\r\n        bytes memory _signature\r\n    ) public pure returns (address) {\r\n        (bytes32 r, bytes32 s, uint8 v) = splitSignature(_signature);\r\n\r\n        return ecrecover(_ethSignedMessageHash, v, r, s);\r\n    }\r\n\r\n    function splitSignature(bytes memory sig)\r\n        public\r\n        pure\r\n        returns (\r\n            bytes32 r,\r\n            bytes32 s,\r\n            uint8 v\r\n        )\r\n    {\r\n        require(sig.length == 65, \"invalid signature length\");\r\n\r\n        assembly {\r\n            /*\r\n            First 32 bytes stores the length of the signature\r\n\r\n            add(sig, 32) = pointer of sig + 32\r\n            effectively, skips first 32 bytes of signature\r\n\r\n            mload(p) loads next 32 bytes starting at the memory address p into memory\r\n            */\r\n\r\n            // first 32 bytes, after the length prefix\r\n            r := mload(add(sig, 32))\r\n            // second 32 bytes\r\n            s := mload(add(sig, 64))\r\n            // final byte (first byte of the next 32 bytes)\r\n            v := byte(0, mload(add(sig, 96)))\r\n        }\r\n\r\n        // implicitly return (r, s, v)\r\n    }\r\n}\r\n\r\n// ethereum.request({method: \"personal_sign\", params: [account, hash]}).then(console.log)\r\n",
  "sourcePath": "D:\\Desktop\\immense\\crypto\\defi application\\test (NFT marketplace)\\NFT game\\src\\contracts\\HasSignature.sol",
  "compiler": {
    "name": "solc",
    "version": "0.8.4+commit.c7e474f2.Emscripten.clang"
  },
  "schemaVersion": "3.4.7",
  "updatedAt": "2022-06-29T16:36:16.571Z",
  "devdoc": {
    "kind": "dev",
    "methods": {},
    "version": 1
  },
  "userdoc": {
    "kind": "user",
    "methods": {},
    "version": 1
  }
}