{
  "contractName": "NFT11",
  "abi": [
    {
      "inputs": [],
      "stateMutability": "nonpayable",
      "type": "constructor"
    },
    {
      "anonymous": false,
      "inputs": [
        {
          "indexed": true,
          "internalType": "address",
          "name": "owner",
          "type": "address"
        },
        {
          "indexed": true,
          "internalType": "address",
          "name": "approved",
          "type": "address"
        },
        {
          "indexed": true,
          "internalType": "uint256",
          "name": "tokenId",
          "type": "uint256"
        }
      ],
      "name": "Approval",
      "type": "event"
    },
    {
      "anonymous": false,
      "inputs": [
        {
          "indexed": true,
          "internalType": "address",
          "name": "owner",
          "type": "address"
        },
        {
          "indexed": true,
          "internalType": "address",
          "name": "operator",
          "type": "address"
        },
        {
          "indexed": false,
          "internalType": "bool",
          "name": "approved",
          "type": "bool"
        }
      ],
      "name": "ApprovalForAll",
      "type": "event"
    },
    {
      "anonymous": false,
      "inputs": [
        {
          "indexed": false,
          "internalType": "uint256",
          "name": "tokenId",
          "type": "uint256"
        },
        {
          "indexed": true,
          "internalType": "address",
          "name": "sender",
          "type": "address"
        },
        {
          "indexed": false,
          "internalType": "uint256",
          "name": "amount",
          "type": "uint256"
        }
      ],
      "name": "Bid",
      "type": "event"
    },
    {
      "anonymous": false,
      "inputs": [
        {
          "indexed": false,
          "internalType": "uint256",
          "name": "tokenId",
          "type": "uint256"
        },
        {
          "indexed": false,
          "internalType": "address",
          "name": "highestBidder",
          "type": "address"
        },
        {
          "indexed": false,
          "internalType": "uint256",
          "name": "highestBid",
          "type": "uint256"
        }
      ],
      "name": "End",
      "type": "event"
    },
    {
      "anonymous": false,
      "inputs": [
        {
          "indexed": true,
          "internalType": "uint256",
          "name": "marketItemId",
          "type": "uint256"
        },
        {
          "indexed": true,
          "internalType": "uint256",
          "name": "tokenId",
          "type": "uint256"
        },
        {
          "indexed": false,
          "internalType": "uint256",
          "name": "price",
          "type": "uint256"
        },
        {
          "indexed": false,
          "internalType": "uint256",
          "name": "royalty",
          "type": "uint256"
        },
        {
          "indexed": false,
          "internalType": "address",
          "name": "creator",
          "type": "address"
        },
        {
          "indexed": false,
          "internalType": "address",
          "name": "seller",
          "type": "address"
        },
        {
          "indexed": false,
          "internalType": "address",
          "name": "owner",
          "type": "address"
        }
      ],
      "name": "MarketItemCreated",
      "type": "event"
    },
    {
      "anonymous": false,
      "inputs": [
        {
          "indexed": true,
          "internalType": "uint256",
          "name": "marketItemId",
          "type": "uint256"
        },
        {
          "indexed": false,
          "internalType": "address",
          "name": "seller",
          "type": "address"
        },
        {
          "indexed": false,
          "internalType": "address",
          "name": "owner",
          "type": "address"
        },
        {
          "indexed": false,
          "internalType": "uint256",
          "name": "price",
          "type": "uint256"
        }
      ],
      "name": "MarketItemResell",
      "type": "event"
    },
    {
      "anonymous": false,
      "inputs": [
        {
          "indexed": false,
          "internalType": "uint256",
          "name": "tokenId",
          "type": "uint256"
        }
      ],
      "name": "Start",
      "type": "event"
    },
    {
      "anonymous": false,
      "inputs": [
        {
          "indexed": true,
          "internalType": "address",
          "name": "from",
          "type": "address"
        },
        {
          "indexed": true,
          "internalType": "address",
          "name": "to",
          "type": "address"
        },
        {
          "indexed": true,
          "internalType": "uint256",
          "name": "tokenId",
          "type": "uint256"
        }
      ],
      "name": "Transfer",
      "type": "event"
    },
    {
      "anonymous": false,
      "inputs": [
        {
          "indexed": false,
          "internalType": "uint256",
          "name": "tokenId",
          "type": "uint256"
        },
        {
          "indexed": true,
          "internalType": "address",
          "name": "bidder",
          "type": "address"
        },
        {
          "indexed": false,
          "internalType": "uint256",
          "name": "amount",
          "type": "uint256"
        }
      ],
      "name": "Withdraw",
      "type": "event"
    },
    {
      "inputs": [],
      "name": "admin",
      "outputs": [
        {
          "internalType": "address payable",
          "name": "",
          "type": "address"
        }
      ],
      "stateMutability": "view",
      "type": "function"
    },
    {
      "inputs": [
        {
          "internalType": "uint256",
          "name": "",
          "type": "uint256"
        }
      ],
      "name": "allMarketItems",
      "outputs": [
        {
          "internalType": "uint256",
          "name": "marketItemId",
          "type": "uint256"
        },
        {
          "internalType": "uint256",
          "name": "tokenId",
          "type": "uint256"
        },
        {
          "internalType": "uint256",
          "name": "royalty",
          "type": "uint256"
        },
        {
          "internalType": "address payable",
          "name": "creator",
          "type": "address"
        },
        {
          "internalType": "address payable",
          "name": "seller",
          "type": "address"
        },
        {
          "internalType": "address payable",
          "name": "owner",
          "type": "address"
        },
        {
          "internalType": "contract IERC20",
          "name": "token",
          "type": "address"
        }
      ],
      "stateMutability": "view",
      "type": "function"
    },
    {
      "inputs": [
        {
          "internalType": "address",
          "name": "to",
          "type": "address"
        },
        {
          "internalType": "uint256",
          "name": "tokenId",
          "type": "uint256"
        }
      ],
      "name": "approve",
      "outputs": [],
      "stateMutability": "nonpayable",
      "type": "function"
    },
    {
      "inputs": [
        {
          "internalType": "uint256",
          "name": "",
          "type": "uint256"
        }
      ],
      "name": "auctionPurchaseToken",
      "outputs": [
        {
          "internalType": "address",
          "name": "",
          "type": "address"
        }
      ],
      "stateMutability": "view",
      "type": "function"
    },
    {
      "inputs": [
        {
          "internalType": "address",
          "name": "owner",
          "type": "address"
        }
      ],
      "name": "balanceOf",
      "outputs": [
        {
          "internalType": "uint256",
          "name": "",
          "type": "uint256"
        }
      ],
      "stateMutability": "view",
      "type": "function"
    },
    {
      "inputs": [
        {
          "internalType": "uint256",
          "name": "",
          "type": "uint256"
        },
        {
          "internalType": "address",
          "name": "",
          "type": "address"
        }
      ],
      "name": "bids",
      "outputs": [
        {
          "internalType": "uint256",
          "name": "",
          "type": "uint256"
        }
      ],
      "stateMutability": "view",
      "type": "function"
    },
    {
      "inputs": [
        {
          "internalType": "uint256",
          "name": "",
          "type": "uint256"
        }
      ],
      "name": "endAt",
      "outputs": [
        {
          "internalType": "uint256",
          "name": "",
          "type": "uint256"
        }
      ],
      "stateMutability": "view",
      "type": "function"
    },
    {
      "inputs": [
        {
          "internalType": "uint256",
          "name": "",
          "type": "uint256"
        }
      ],
      "name": "ended",
      "outputs": [
        {
          "internalType": "bool",
          "name": "",
          "type": "bool"
        }
      ],
      "stateMutability": "view",
      "type": "function"
    },
    {
      "inputs": [
        {
          "internalType": "uint256",
          "name": "tokenId",
          "type": "uint256"
        }
      ],
      "name": "getApproved",
      "outputs": [
        {
          "internalType": "address",
          "name": "",
          "type": "address"
        }
      ],
      "stateMutability": "view",
      "type": "function"
    },
    {
      "inputs": [
        {
          "internalType": "uint256",
          "name": "",
          "type": "uint256"
        }
      ],
      "name": "highestBid",
      "outputs": [
        {
          "internalType": "uint256",
          "name": "",
          "type": "uint256"
        }
      ],
      "stateMutability": "view",
      "type": "function"
    },
    {
      "inputs": [
        {
          "internalType": "uint256",
          "name": "",
          "type": "uint256"
        }
      ],
      "name": "highestBidder",
      "outputs": [
        {
          "internalType": "address",
          "name": "",
          "type": "address"
        }
      ],
      "stateMutability": "view",
      "type": "function"
    },
    {
      "inputs": [
        {
          "internalType": "address",
          "name": "owner",
          "type": "address"
        },
        {
          "internalType": "address",
          "name": "operator",
          "type": "address"
        }
      ],
      "name": "isApprovedForAll",
      "outputs": [
        {
          "internalType": "bool",
          "name": "",
          "type": "bool"
        }
      ],
      "stateMutability": "view",
      "type": "function"
    },
    {
      "inputs": [],
      "name": "name",
      "outputs": [
        {
          "internalType": "string",
          "name": "",
          "type": "string"
        }
      ],
      "stateMutability": "view",
      "type": "function"
    },
    {
      "inputs": [
        {
          "internalType": "uint256",
          "name": "tokenId",
          "type": "uint256"
        }
      ],
      "name": "ownerOf",
      "outputs": [
        {
          "internalType": "address",
          "name": "",
          "type": "address"
        }
      ],
      "stateMutability": "view",
      "type": "function"
    },
    {
      "inputs": [],
      "name": "platformCommission",
      "outputs": [
        {
          "internalType": "uint256",
          "name": "",
          "type": "uint256"
        }
      ],
      "stateMutability": "view",
      "type": "function"
    },
    {
      "inputs": [
        {
          "internalType": "address",
          "name": "from",
          "type": "address"
        },
        {
          "internalType": "address",
          "name": "to",
          "type": "address"
        },
        {
          "internalType": "uint256",
          "name": "tokenId",
          "type": "uint256"
        }
      ],
      "name": "safeTransferFrom",
      "outputs": [],
      "stateMutability": "nonpayable",
      "type": "function"
    },
    {
      "inputs": [
        {
          "internalType": "address",
          "name": "from",
          "type": "address"
        },
        {
          "internalType": "address",
          "name": "to",
          "type": "address"
        },
        {
          "internalType": "uint256",
          "name": "tokenId",
          "type": "uint256"
        },
        {
          "internalType": "bytes",
          "name": "_data",
          "type": "bytes"
        }
      ],
      "name": "safeTransferFrom",
      "outputs": [],
      "stateMutability": "nonpayable",
      "type": "function"
    },
    {
      "inputs": [
        {
          "internalType": "uint256",
          "name": "",
          "type": "uint256"
        }
      ],
      "name": "seller",
      "outputs": [
        {
          "internalType": "address",
          "name": "",
          "type": "address"
        }
      ],
      "stateMutability": "view",
      "type": "function"
    },
    {
      "inputs": [
        {
          "internalType": "address",
          "name": "operator",
          "type": "address"
        },
        {
          "internalType": "bool",
          "name": "approved",
          "type": "bool"
        }
      ],
      "name": "setApprovalForAll",
      "outputs": [],
      "stateMutability": "nonpayable",
      "type": "function"
    },
    {
      "inputs": [
        {
          "internalType": "uint256",
          "name": "",
          "type": "uint256"
        }
      ],
      "name": "started",
      "outputs": [
        {
          "internalType": "bool",
          "name": "",
          "type": "bool"
        }
      ],
      "stateMutability": "view",
      "type": "function"
    },
    {
      "inputs": [
        {
          "internalType": "bytes4",
          "name": "interfaceId",
          "type": "bytes4"
        }
      ],
      "name": "supportsInterface",
      "outputs": [
        {
          "internalType": "bool",
          "name": "",
          "type": "bool"
        }
      ],
      "stateMutability": "view",
      "type": "function"
    },
    {
      "inputs": [],
      "name": "symbol",
      "outputs": [
        {
          "internalType": "string",
          "name": "",
          "type": "string"
        }
      ],
      "stateMutability": "view",
      "type": "function"
    },
    {
      "inputs": [
        {
          "internalType": "uint256",
          "name": "tokenId",
          "type": "uint256"
        }
      ],
      "name": "tokenURI",
      "outputs": [
        {
          "internalType": "string",
          "name": "",
          "type": "string"
        }
      ],
      "stateMutability": "view",
      "type": "function"
    },
    {
      "inputs": [
        {
          "internalType": "address",
          "name": "from",
          "type": "address"
        },
        {
          "internalType": "address",
          "name": "to",
          "type": "address"
        },
        {
          "internalType": "uint256",
          "name": "tokenId",
          "type": "uint256"
        }
      ],
      "name": "transferFrom",
      "outputs": [],
      "stateMutability": "nonpayable",
      "type": "function"
    },
    {
      "inputs": [
        {
          "internalType": "uint256",
          "name": "_platformCommission",
          "type": "uint256"
        }
      ],
      "name": "updatePlatformCommision",
      "outputs": [],
      "stateMutability": "nonpayable",
      "type": "function"
    },
    {
      "inputs": [
        {
          "internalType": "address",
          "name": "_admin",
          "type": "address"
        }
      ],
      "name": "updateAdmin",
      "outputs": [],
      "stateMutability": "nonpayable",
      "type": "function"
    },
    {
      "inputs": [
        {
          "components": [
            {
              "internalType": "uint256",
              "name": "tokenId",
              "type": "uint256"
            },
            {
              "internalType": "uint256",
              "name": "minPrice",
              "type": "uint256"
            },
            {
              "internalType": "string",
              "name": "uri",
              "type": "string"
            },
            {
              "internalType": "bytes",
              "name": "signature",
              "type": "bytes"
            }
          ],
          "internalType": "struct NFT11.NFTVoucher",
          "name": "voucher",
          "type": "tuple"
        },
        {
          "internalType": "uint256",
          "name": "_royalty",
          "type": "uint256"
        }
      ],
      "name": "createAndBuyToken",
      "outputs": [
        {
          "internalType": "uint256",
          "name": "",
          "type": "uint256"
        }
      ],
      "stateMutability": "payable",
      "type": "function"
    },
    {
      "inputs": [
        {
          "components": [
            {
              "internalType": "uint256",
              "name": "tokenId",
              "type": "uint256"
            },
            {
              "internalType": "uint256",
              "name": "minPrice",
              "type": "uint256"
            },
            {
              "internalType": "string",
              "name": "uri",
              "type": "string"
            },
            {
              "internalType": "bytes",
              "name": "signature",
              "type": "bytes"
            }
          ],
          "internalType": "struct NFT11.NFTVoucher",
          "name": "voucher",
          "type": "tuple"
        },
        {
          "internalType": "uint256",
          "name": "_royalty",
          "type": "uint256"
        },
        {
          "internalType": "contract IERC20",
          "name": "_token",
          "type": "address"
        }
      ],
      "name": "createAndBuyTokenWETH",
      "outputs": [
        {
          "internalType": "uint256",
          "name": "",
          "type": "uint256"
        }
      ],
      "stateMutability": "payable",
      "type": "function"
    },
    {
      "inputs": [
        {
          "internalType": "uint256",
          "name": "_marketItemId",
          "type": "uint256"
        },
        {
          "components": [
            {
              "internalType": "uint256",
              "name": "tokenId",
              "type": "uint256"
            },
            {
              "internalType": "uint256",
              "name": "minPrice",
              "type": "uint256"
            },
            {
              "internalType": "string",
              "name": "uri",
              "type": "string"
            },
            {
              "internalType": "bytes",
              "name": "signature",
              "type": "bytes"
            }
          ],
          "internalType": "struct NFT11.NFTVoucher",
          "name": "voucher",
          "type": "tuple"
        }
      ],
      "name": "secondaryBuyToken",
      "outputs": [],
      "stateMutability": "payable",
      "type": "function"
    },
    {
      "inputs": [
        {
          "internalType": "uint256",
          "name": "_marketItemId",
          "type": "uint256"
        },
        {
          "components": [
            {
              "internalType": "uint256",
              "name": "tokenId",
              "type": "uint256"
            },
            {
              "internalType": "uint256",
              "name": "minPrice",
              "type": "uint256"
            },
            {
              "internalType": "string",
              "name": "uri",
              "type": "string"
            },
            {
              "internalType": "bytes",
              "name": "signature",
              "type": "bytes"
            }
          ],
          "internalType": "struct NFT11.NFTVoucher",
          "name": "voucher",
          "type": "tuple"
        }
      ],
      "name": "secondaryBuyTokenWETH",
      "outputs": [],
      "stateMutability": "payable",
      "type": "function"
    },
    {
      "inputs": [
        {
          "internalType": "uint256",
          "name": "tokenId",
          "type": "uint256"
        },
        {
          "internalType": "string",
          "name": "_tokenURI",
          "type": "string"
        }
      ],
      "name": "setTokenURI",
      "outputs": [],
      "stateMutability": "nonpayable",
      "type": "function"
    },
    {
      "inputs": [
        {
          "internalType": "uint256",
          "name": "tokenId",
          "type": "uint256"
        }
      ],
      "name": "burn",
      "outputs": [],
      "stateMutability": "nonpayable",
      "type": "function"
    },
    {
      "inputs": [],
      "name": "getChainID",
      "outputs": [
        {
          "internalType": "uint256",
          "name": "",
          "type": "uint256"
        }
      ],
      "stateMutability": "view",
      "type": "function"
    },
    {
      "inputs": [
        {
          "internalType": "uint256",
          "name": "_nftId",
          "type": "uint256"
        },
        {
          "internalType": "uint256",
          "name": "startingBid",
          "type": "uint256"
        },
        {
          "internalType": "uint256",
          "name": "auctionPeriodInDays",
          "type": "uint256"
        },
        {
          "internalType": "address",
          "name": "_token",
          "type": "address"
        }
      ],
      "name": "start",
      "outputs": [],
      "stateMutability": "nonpayable",
      "type": "function"
    },
    {
      "inputs": [
        {
          "internalType": "uint256",
          "name": "_nftId",
          "type": "uint256"
        },
        {
          "internalType": "uint256",
          "name": "amount",
          "type": "uint256"
        }
      ],
      "name": "bid",
      "outputs": [],
      "stateMutability": "payable",
      "type": "function"
    },
    {
      "inputs": [
        {
          "components": [
            {
              "internalType": "uint256",
              "name": "tokenId",
              "type": "uint256"
            },
            {
              "internalType": "uint256",
              "name": "minPrice",
              "type": "uint256"
            },
            {
              "internalType": "string",
              "name": "uri",
              "type": "string"
            },
            {
              "internalType": "bytes",
              "name": "signature",
              "type": "bytes"
            }
          ],
          "internalType": "struct NFT11.NFTVoucher",
          "name": "voucher",
          "type": "tuple"
        },
        {
          "internalType": "address",
          "name": "bidder",
          "type": "address"
        }
      ],
      "name": "end",
      "outputs": [],
      "stateMutability": "nonpayable",
      "type": "function"
    },
    {
      "inputs": [
        {
          "internalType": "uint256",
          "name": "_nftId",
          "type": "uint256"
        }
      ],
      "name": "withdraw",
      "outputs": [],
      "stateMutability": "payable",
      "type": "function"
    }
  ],
  "bytecode": "0x6101406040523480156200001257600080fd5b506040518060400160405280600f81526020017f4c617a794e46542d566f756368657200000000000000000000000000000000008152506040518060400160405280600181526020017f31000000000000000000000000000000000000000000000000000000000000008152506040518060400160405280600e81526020017f4f70656e53656120546f6b656e730000000000000000000000000000000000008152506040518060400160405280600381526020017f4f535400000000000000000000000000000000000000000000000000000000008152508160009080519060200190620001039291906200025f565b5080600190805190602001906200011c9291906200025f565b50505060008280519060200120905060008280519060200120905060007f8b73c3c69bb8fe3d512ecc4cf759cc79239f7b179b0ffacaa9a75d522b39400f90508260e081815250508161010081815250504660a08181525050620001888184846200022360201b60201c565b608081815250503073ffffffffffffffffffffffffffffffffffffffff1660c08173ffffffffffffffffffffffffffffffffffffffff1660601b81525050806101208181525050505050505033600860006101000a81548173ffffffffffffffffffffffffffffffffffffffff021916908373ffffffffffffffffffffffffffffffffffffffff16021790555060026009819055506200044c565b600083838346306040516020016200024095949392919062000342565b6040516020818303038152906040528051906020012090509392505050565b8280546200026d90620003e7565b90600052602060002090601f016020900481019282620002915760008555620002dd565b82601f10620002ac57805160ff1916838001178555620002dd565b82800160010185558215620002dd579182015b82811115620002dc578251825591602001919060010190620002bf565b5b509050620002ec9190620002f0565b5090565b5b808211156200030b576000816000905550600101620002f1565b5090565b6200031a816200039f565b82525050565b6200032b81620003b3565b82525050565b6200033c81620003dd565b82525050565b600060a08201905062000359600083018862000320565b62000368602083018762000320565b62000377604083018662000320565b62000386606083018562000331565b6200039560808301846200030f565b9695505050505050565b6000620003ac82620003bd565b9050919050565b6000819050919050565b600073ffffffffffffffffffffffffffffffffffffffff82169050919050565b6000819050919050565b600060028204905060018216806200040057607f821691505b602082108114156200041757620004166200041d565b5b50919050565b7f4e487b7100000000000000000000000000000000000000000000000000000000600052602260045260246000fd5b60805160a05160c05160601c60e05161010051610120516180366200049f60003960006153bf01526000615401015260006153e0015260006153150152600061536b0152600061539401526180366000f3fe60806040526004361061021a5760003560e01c8063694e91b811610123578063aacdfe6f116100ab578063e2f273bd1161006f578063e2f273bd1461082b578063e985e9c514610854578063f7d1a6ed14610891578063f851a440146108ce578063fedd23c9146108f95761021a565b8063aacdfe6f1461072f578063b14c63c51461076c578063b88d4fde146107a9578063c87b56dd146107d2578063dfb649491461080f5761021a565b8063861a3689116100f2578063861a36891461062b57806386aa6bfd1461066857806395d89b41146106985780639fc963d1146106c3578063a22cb465146107065761021a565b8063694e91b81461055d5780636bcaccfa1461058857806370a08231146105b15780638183d744146105ee5761021a565b806333f0f512116101a6578063451df52e11610175578063451df52e1461046c57806351ef708a146104a9578063564b81ef146104d9578063598647f8146105045780636352211e146105205761021a565b806333f0f512146103c15780633f1ffcec146103dd57806342842e0e1461041a57806342966c68146104435761021a565b8063162094c4116101ed578063162094c4146102ed5780631b5f95c4146103165780631f89ef131461033f57806323b872dd1461037c5780632e1a7d4d146103a55761021a565b806301ffc9a71461021f57806306fdde031461025c578063081812fc14610287578063095ea7b3146102c4575b600080fd5b34801561022b57600080fd5b5061024660048036038101906102419190615bb4565b610922565b6040516102539190616812565b60405180910390f35b34801561026857600080fd5b50610271610a04565b60405161027e919061690a565b60405180910390f35b34801561029357600080fd5b506102ae60048036038101906102a99190615d15565b610a96565b6040516102bb91906166de565b60405180910390f35b3480156102d057600080fd5b506102eb60048036038101906102e69190615b4f565b610b1b565b005b3480156102f957600080fd5b50610314600480360381019061030f9190615da3565b610c33565b005b34801561032257600080fd5b5061033d60048036038101906103389190615c06565b610c83565b005b34801561034b57600080fd5b5061036660048036038101906103619190615d15565b611731565b6040516103739190616812565b60405180910390f35b34801561038857600080fd5b506103a3600480360381019061039e9190615a49565b611751565b005b6103bf60048036038101906103ba9190615d15565b6117b1565b005b6103db60048036038101906103d69190615df7565b611a1a565b005b3480156103e957600080fd5b5061040460048036038101906103ff9190615d67565b611cb5565b6040516104119190616e6c565b60405180910390f35b34801561042657600080fd5b50610441600480360381019061043c9190615a49565b611cda565b005b34801561044f57600080fd5b5061046a60048036038101906104659190615d15565b611cfa565b005b34801561047857600080fd5b50610493600480360381019061048e9190615d15565b611d48565b6040516104a091906166de565b60405180910390f35b6104c360048036038101906104be9190615cae565b611d7b565b6040516104d09190616e6c565b60405180910390f35b3480156104e557600080fd5b506104ee6120d4565b6040516104fb9190616e6c565b60405180910390f35b61051e60048036038101906105199190615e4b565b6120e1565b005b34801561052c57600080fd5b5061054760048036038101906105429190615d15565b61265a565b60405161055491906166de565b60405180910390f35b34801561056957600080fd5b5061057261270c565b60405161057f9190616e6c565b60405180910390f35b34801561059457600080fd5b506105af60048036038101906105aa9190615e87565b612712565b005b3480156105bd57600080fd5b506105d860048036038101906105d391906159e4565b6128c9565b6040516105e59190616e6c565b60405180910390f35b3480156105fa57600080fd5b5061061560048036038101906106109190615d15565b612981565b6040516106229190616e6c565b60405180910390f35b34801561063757600080fd5b50610652600480360381019061064d9190615d15565b612999565b60405161065f9190616812565b60405180910390f35b610682600480360381019061067d9190615c5a565b6129b9565b60405161068f9190616e6c565b60405180910390f35b3480156106a457600080fd5b506106ad612d55565b6040516106ba919061690a565b60405180910390f35b3480156106cf57600080fd5b506106ea60048036038101906106e59190615d15565b612de7565b6040516106fd9796959493929190616f3a565b60405180910390f35b34801561071257600080fd5b5061072d60048036038101906107289190615b13565b612ea9565b005b34801561073b57600080fd5b5061075660048036038101906107519190615d15565b612ebf565b60405161076391906166de565b60405180910390f35b34801561077857600080fd5b50610793600480360381019061078e9190615d15565b612ef2565b6040516107a09190616e6c565b60405180910390f35b3480156107b557600080fd5b506107d060048036038101906107cb9190615a98565b612f0a565b005b3480156107de57600080fd5b506107f960048036038101906107f49190615d15565b612f6c565b604051610806919061690a565b60405180910390f35b61082960048036038101906108249190615df7565b6130be565b005b34801561083757600080fd5b50610852600480360381019061084d91906159e4565b61339c565b005b34801561086057600080fd5b5061087b60048036038101906108769190615a0d565b613470565b6040516108889190616812565b60405180910390f35b34801561089d57600080fd5b506108b860048036038101906108b39190615d15565b613504565b6040516108c591906166de565b60405180910390f35b3480156108da57600080fd5b506108e3613537565b6040516108f091906166f9565b60405180910390f35b34801561090557600080fd5b50610920600480360381019061091b9190615d15565b61355d565b005b60007f80ac58cd000000000000000000000000000000000000000000000000000000007bffffffffffffffffffffffffffffffffffffffffffffffffffffffff1916827bffffffffffffffffffffffffffffffffffffffffffffffffffffffff191614806109ed57507f5b5e139f000000000000000000000000000000000000000000000000000000007bffffffffffffffffffffffffffffffffffffffffffffffffffffffff1916827bffffffffffffffffffffffffffffffffffffffffffffffffffffffff1916145b806109fd57506109fc826135f7565b5b9050919050565b606060008054610a139061738c565b80601f0160208091040260200160405190810160405280929190818152602001828054610a3f9061738c565b8015610a8c5780601f10610a6157610100808354040283529160200191610a8c565b820191906000526020600020905b815481529060010190602001808311610a6f57829003601f168201915b5050505050905090565b6000610aa182613661565b610ae0576040517f08c379a0000000000000000000000000000000000000000000000000000000008152600401610ad790616c8c565b60405180910390fd5b6004600083815260200190815260200160002060009054906101000a900473ffffffffffffffffffffffffffffffffffffffff169050919050565b6000610b268261265a565b90508073ffffffffffffffffffffffffffffffffffffffff168373ffffffffffffffffffffffffffffffffffffffff161415610b97576040517f08c379a0000000000000000000000000000000000000000000000000000000008152600401610b8e90616d0c565b60405180910390fd5b8073ffffffffffffffffffffffffffffffffffffffff16610bb66136cd565b73ffffffffffffffffffffffffffffffffffffffff161480610be55750610be481610bdf6136cd565b613470565b5b610c24576040517f08c379a0000000000000000000000000000000000000000000000000000000008152600401610c1b90616b6c565b60405180910390fd5b610c2e83836136d5565b505050565b81610c3d8161265a565b73ffffffffffffffffffffffffffffffffffffffff163373ffffffffffffffffffffffffffffffffffffffff1614610c7457600080fd5b610c7e8383610c33565b505050565b600b60008360000135815260200190815260200160002060009054906101000a900460ff16610ce7576040517f08c379a0000000000000000000000000000000000000000000000000000000008152600401610cde90616c0c565b60405180910390fd5b600d60008360000135815260200190815260200160002054421015610d41576040517f08c379a0000000000000000000000000000000000000000000000000000000008152600401610d3890616a0c565b60405180910390fd5b600c60008360000135815260200190815260200160002060009054906101000a900460ff1615610da6576040517f08c379a0000000000000000000000000000000000000000000000000000000008152600401610d9d90616e0c565b60405180910390fd5b6000610db18361378e565b90508073ffffffffffffffffffffffffffffffffffffffff16600a60008560000135815260200190815260200160002060009054906101000a900473ffffffffffffffffffffffffffffffffffffffff1673ffffffffffffffffffffffffffffffffffffffff1614610e58576040517f08c379a0000000000000000000000000000000000000000000000000000000008152600401610e4f90616acc565b60405180910390fd5b3373ffffffffffffffffffffffffffffffffffffffff168173ffffffffffffffffffffffffffffffffffffffff1614610ec6576040517f08c379a0000000000000000000000000000000000000000000000000000000008152600401610ebd90616bcc565b60405180910390fd5b6000601060008560000135815260200190815260200160002060008473ffffffffffffffffffffffffffffffffffffffff1673ffffffffffffffffffffffffffffffffffffffff168152602001908152602001600020541180610f555750600073ffffffffffffffffffffffffffffffffffffffff168273ffffffffffffffffffffffffffffffffffffffff16145b610f94576040517f08c379a0000000000000000000000000000000000000000000000000000000008152600401610f8b906169ac565b60405180910390fd5b6001600c60008560000135815260200190815260200160002060006101000a81548160ff021916908315150217905550610fd2818460000135613800565b6110328360000135848060400190610fea9190617000565b8080601f016020809104026020016040519081016040528093929190818152602001838380828437600081840152601f19601f820116905080830192505050505050506139ce565b600073ffffffffffffffffffffffffffffffffffffffff168273ffffffffffffffffffffffffffffffffffffffff16146113d45760006064601060008660000135815260200190815260200160002060008573ffffffffffffffffffffffffffffffffffffffff1673ffffffffffffffffffffffffffffffffffffffff168152602001908152602001600020546009546110cc91906171b3565b6110d69190617182565b905060006064601060008760000135815260200190815260200160002060008673ffffffffffffffffffffffffffffffffffffffff1673ffffffffffffffffffffffffffffffffffffffff168152602001908152602001600020546009546064611140919061720d565b61114a91906171b3565b6111549190617182565b90506000601160008760000135815260200190815260200160002060009054906101000a900473ffffffffffffffffffffffffffffffffffffffff1690508073ffffffffffffffffffffffffffffffffffffffff1663a9059cbb600860009054906101000a900473ffffffffffffffffffffffffffffffffffffffff16856040518363ffffffff1660e01b81526004016111ef929190616714565b602060405180830381600087803b15801561120957600080fd5b505af115801561121d573d6000803e3d6000fd5b505050506040513d601f19601f820116820180604052508101906112419190615b8b565b508073ffffffffffffffffffffffffffffffffffffffff1663a9059cbb85846040518363ffffffff1660e01b815260040161127d9291906167e9565b602060405180830381600087803b15801561129757600080fd5b505af11580156112ab573d6000803e3d6000fd5b505050506040513d601f19601f820116820180604052508101906112cf9190615b8b565b506000601060008860000135815260200190815260200160002060008773ffffffffffffffffffffffffffffffffffffffff1673ffffffffffffffffffffffffffffffffffffffff1681526020019081526020016000208190555061133984868860000135613a42565b7fad71bc980e1f9155e488acf543cc5276beae185d612505ea3eaff929e4fe37f0866000013586601060008a60000135815260200190815260200160002060008973ffffffffffffffffffffffffffffffffffffffff1673ffffffffffffffffffffffffffffffffffffffff168152602001908152602001600020546040516113c493929190616e87565b60405180910390a150505061172c565b60006064600e600086600001358152602001908152602001600020546009546113fd91906171b3565b6114079190617182565b905060006064600e600087600001358152602001908152602001600020546009546064611434919061720d565b61143e91906171b3565b6114489190617182565b90506000601160008760000135815260200190815260200160002060009054906101000a900473ffffffffffffffffffffffffffffffffffffffff1690508073ffffffffffffffffffffffffffffffffffffffff1663a9059cbb600860009054906101000a900473ffffffffffffffffffffffffffffffffffffffff16856040518363ffffffff1660e01b81526004016114e3929190616714565b602060405180830381600087803b1580156114fd57600080fd5b505af1158015611511573d6000803e3d6000fd5b505050506040513d601f19601f820116820180604052508101906115359190615b8b565b508073ffffffffffffffffffffffffffffffffffffffff1663a9059cbb85846040518363ffffffff1660e01b81526004016115719291906167e9565b602060405180830381600087803b15801561158b57600080fd5b505af115801561159f573d6000803e3d6000fd5b505050506040513d601f19601f820116820180604052508101906115c39190615b8b565b50600060106000886000013581526020019081526020016000206000600f60008a60000135815260200190815260200160002060009054906101000a900473ffffffffffffffffffffffffffffffffffffffff1673ffffffffffffffffffffffffffffffffffffffff1673ffffffffffffffffffffffffffffffffffffffff1681526020019081526020016000208190555061169b84600f60008960000135815260200190815260200160002060009054906101000a900473ffffffffffffffffffffffffffffffffffffffff168860000135613a42565b7fad71bc980e1f9155e488acf543cc5276beae185d612505ea3eaff929e4fe37f08660000135600f60008960000135815260200190815260200160002060009054906101000a900473ffffffffffffffffffffffffffffffffffffffff16600e60008a6000013581526020019081526020016000205460405161172093929190616e87565b60405180910390a15050505b505050565b600b6020528060005260406000206000915054906101000a900460ff1681565b61176261175c6136cd565b82613c9e565b6117a1576040517f08c379a000000000000000000000000000000000000000000000000000000000815260040161179890616d4c565b60405180910390fd5b6117ac838383613a42565b505050565b600c600082815260200190815260200160002060009054906101000a900460ff16611811576040517f08c379a000000000000000000000000000000000000000000000000000000000815260040161180890616cec565b60405180910390fd5b60006010600083815260200190815260200160002060003373ffffffffffffffffffffffffffffffffffffffff1673ffffffffffffffffffffffffffffffffffffffff168152602001908152602001600020549050600081116118a9576040517f08c379a00000000000000000000000000000000000000000000000000000000081526004016118a090616dcc565b60405180910390fd5b60006010600084815260200190815260200160002060003373ffffffffffffffffffffffffffffffffffffffff1673ffffffffffffffffffffffffffffffffffffffff1681526020019081526020016000208190555060006011600084815260200190815260200160002060009054906101000a900473ffffffffffffffffffffffffffffffffffffffff1690508073ffffffffffffffffffffffffffffffffffffffff1663a9059cbb33846040518363ffffffff1660e01b81526004016119729291906167e9565b602060405180830381600087803b15801561198c57600080fd5b505af11580156119a0573d6000803e3d6000fd5b505050506040513d601f19601f820116820180604052508101906119c49190615b8b565b503373ffffffffffffffffffffffffffffffffffffffff167f9da6493a92039daf47d1f2d7a782299c5994c6323eb1e972f69c432089ec52bf8484604051611a0d929190616ebe565b60405180910390a2505050565b6000611a258261378e565b90508073ffffffffffffffffffffffffffffffffffffffff163373ffffffffffffffffffffffffffffffffffffffff161415611a96576040517f08c379a0000000000000000000000000000000000000000000000000000000008152600401611a8d90616d8c565b60405180910390fd5b6012600084815260200190815260200160002060050160009054906101000a900473ffffffffffffffffffffffffffffffffffffffff1673ffffffffffffffffffffffffffffffffffffffff168173ffffffffffffffffffffffffffffffffffffffff1614611b3a576040517f08c379a0000000000000000000000000000000000000000000000000000000008152600401611b3190616dac565b60405180910390fd5b8160000135601260008581526020019081526020016000206001015414611b96576040517f08c379a0000000000000000000000000000000000000000000000000000000008152600401611b8d9061696c565b60405180910390fd5b806012600085815260200190815260200160002060040160006101000a81548173ffffffffffffffffffffffffffffffffffffffff021916908373ffffffffffffffffffffffffffffffffffffffff160217905550336012600085815260200190815260200160002060050160006101000a81548173ffffffffffffffffffffffffffffffffffffffff021916908373ffffffffffffffffffffffffffffffffffffffff160217905550611c6181336012600087815260200190815260200160002060010154613a42565b611c7082602001358433613d7c565b827f43fd502c2b3ccce9ab96e3398308b712eb7ff697a75a2afe87316bdf94af0efe82338560200135604051611ca893929190616766565b60405180910390a2505050565b6010602052816000526040600020602052806000526040600020600091509150505481565b611cf583838360405180602001604052806000815250612f0a565b505050565b80611d048161265a565b73ffffffffffffffffffffffffffffffffffffffff163373ffffffffffffffffffffffffffffffffffffffff1614611d3b57600080fd5b611d44826141b2565b5050565b600f6020528060005260406000206000915054906101000a900473ffffffffffffffffffffffffffffffffffffffff1681565b600080611d878561378e565b90508073ffffffffffffffffffffffffffffffffffffffff163373ffffffffffffffffffffffffffffffffffffffff161415611df8576040517f08c379a0000000000000000000000000000000000000000000000000000000008152600401611def90616d8c565b60405180910390fd5b611e026007614205565b6000611e0e600761421b565b90506040518060e00160405280828152602001876000013581526020018681526020018373ffffffffffffffffffffffffffffffffffffffff1681526020018373ffffffffffffffffffffffffffffffffffffffff1681526020013373ffffffffffffffffffffffffffffffffffffffff1681526020018573ffffffffffffffffffffffffffffffffffffffff168152506012600083815260200190815260200160002060008201518160000155602082015181600101556040820151816002015560608201518160030160006101000a81548173ffffffffffffffffffffffffffffffffffffffff021916908373ffffffffffffffffffffffffffffffffffffffff16021790555060808201518160040160006101000a81548173ffffffffffffffffffffffffffffffffffffffff021916908373ffffffffffffffffffffffffffffffffffffffff16021790555060a08201518160050160006101000a81548173ffffffffffffffffffffffffffffffffffffffff021916908373ffffffffffffffffffffffffffffffffffffffff16021790555060c08201518160060160006101000a81548173ffffffffffffffffffffffffffffffffffffffff021916908373ffffffffffffffffffffffffffffffffffffffff160217905550905050611ffd828760000135613800565b61205d86600001358780604001906120159190617000565b8080601f016020809104026020016040519081016040528093929190818152602001838380828437600081840152601f19601f820116905080830192505050505050506139ce565b61206c82338860000135613a42565b61207b86602001358233614229565b8560000135817f707ba65071f3941b3650c9f76a3a53a37f79ffd8277eb654eae8b8a83eb4a02b8860200135888687336040516120bc959493929190616ee7565b60405180910390a38560000135925050509392505050565b6000804690508091505090565b600b600083815260200190815260200160002060009054906101000a900460ff16612141576040517f08c379a000000000000000000000000000000000000000000000000000000000815260040161213890616d2c565b60405180910390fd5b600d6000838152602001908152602001600020544210612196576040517f08c379a000000000000000000000000000000000000000000000000000000000815260040161218d90616aac565b60405180910390fd5b600a600083815260200190815260200160002060009054906101000a900473ffffffffffffffffffffffffffffffffffffffff1673ffffffffffffffffffffffffffffffffffffffff163373ffffffffffffffffffffffffffffffffffffffff161415612238576040517f08c379a000000000000000000000000000000000000000000000000000000000815260040161222f90616a2c565b60405180910390fd5b60008073ffffffffffffffffffffffffffffffffffffffff166011600085815260200190815260200160002060009054906101000a900473ffffffffffffffffffffffffffffffffffffffff1673ffffffffffffffffffffffffffffffffffffffff16141561235957346010600085815260200190815260200160002060003373ffffffffffffffffffffffffffffffffffffffff1673ffffffffffffffffffffffffffffffffffffffff168152602001908152602001600020546122fd919061712c565b9050600e6000848152602001908152602001600020548111612354576040517f08c379a000000000000000000000000000000000000000000000000000000000815260040161234b9061694c565b60405180910390fd5b612546565b60006011600085815260200190815260200160002060009054906101000a900473ffffffffffffffffffffffffffffffffffffffff16905060008173ffffffffffffffffffffffffffffffffffffffff1663dd62ed3e33306040518363ffffffff1660e01b81526004016123ce92919061673d565b60206040518083038186803b1580156123e657600080fd5b505afa1580156123fa573d6000803e3d6000fd5b505050506040513d601f19601f8201168201806040525081019061241e9190615d3e565b905083811015612463576040517f08c379a000000000000000000000000000000000000000000000000000000000815260040161245a90616e4c565b60405180910390fd5b836010600087815260200190815260200160002060003373ffffffffffffffffffffffffffffffffffffffff1673ffffffffffffffffffffffffffffffffffffffff168152602001908152602001600020546124bf919061712c565b9250600e6000868152602001908152602001600020548311612516576040517f08c379a000000000000000000000000000000000000000000000000000000000815260040161250d9061694c565b60405180910390fd5b6125433330868573ffffffffffffffffffffffffffffffffffffffff16614615909392919063ffffffff16565b50505b806010600085815260200190815260200160002060003373ffffffffffffffffffffffffffffffffffffffff1673ffffffffffffffffffffffffffffffffffffffff1681526020019081526020016000208190555080600e60008581526020019081526020016000208190555033600f600085815260200190815260200160002060006101000a81548173ffffffffffffffffffffffffffffffffffffffff021916908373ffffffffffffffffffffffffffffffffffffffff1602179055503373ffffffffffffffffffffffffffffffffffffffff167fdcd726e11f8b5e160f00290f0fe3a1abb547474e53a8e7a8f49a85e7b1ca3199848360405161264d929190616ebe565b60405180910390a2505050565b6000806002600084815260200190815260200160002060009054906101000a900473ffffffffffffffffffffffffffffffffffffffff169050600073ffffffffffffffffffffffffffffffffffffffff168173ffffffffffffffffffffffffffffffffffffffff161415612703576040517f08c379a00000000000000000000000000000000000000000000000000000000081526004016126fa90616bac565b60405180910390fd5b80915050919050565b60095481565b600b600085815260200190815260200160002060009054906101000a900460ff1615612773576040517f08c379a000000000000000000000000000000000000000000000000000000000815260040161276a90616a4c565b60405180910390fd5b33600a600086815260200190815260200160002060006101000a81548173ffffffffffffffffffffffffffffffffffffffff021916908373ffffffffffffffffffffffffffffffffffffffff16021790555082600e6000868152602001908152602001600020819055506001600b600086815260200190815260200160002060006101000a81548160ff021916908315150217905550620151808261281891906171b3565b42612823919061712c565b600d600086815260200190815260200160002081905550806011600086815260200190815260200160002060006101000a81548173ffffffffffffffffffffffffffffffffffffffff021916908373ffffffffffffffffffffffffffffffffffffffff1602179055507ff06a29c94c6f4edc1085072972d9441f7603e81c8535a308f214285d0653c850846040516128bb9190616e6c565b60405180910390a150505050565b60008073ffffffffffffffffffffffffffffffffffffffff168273ffffffffffffffffffffffffffffffffffffffff16141561293a576040517f08c379a000000000000000000000000000000000000000000000000000000000815260040161293190616b8c565b60405180910390fd5b600360008373ffffffffffffffffffffffffffffffffffffffff1673ffffffffffffffffffffffffffffffffffffffff168152602001908152602001600020549050919050565b600d6020528060005260406000206000915090505481565b600c6020528060005260406000206000915054906101000a900460ff1681565b6000806129c58461378e565b90508073ffffffffffffffffffffffffffffffffffffffff163373ffffffffffffffffffffffffffffffffffffffff161415612a36576040517f08c379a0000000000000000000000000000000000000000000000000000000008152600401612a2d90616d8c565b60405180910390fd5b8360200135341015612a7d576040517f08c379a0000000000000000000000000000000000000000000000000000000008152600401612a7490616e2c565b60405180910390fd5b612a876007614205565b6000612a93600761421b565b90506040518060e00160405280828152602001866000013581526020018581526020018373ffffffffffffffffffffffffffffffffffffffff1681526020018373ffffffffffffffffffffffffffffffffffffffff1681526020013373ffffffffffffffffffffffffffffffffffffffff168152602001600073ffffffffffffffffffffffffffffffffffffffff168152506012600083815260200190815260200160002060008201518160000155602082015181600101556040820151816002015560608201518160030160006101000a81548173ffffffffffffffffffffffffffffffffffffffff021916908373ffffffffffffffffffffffffffffffffffffffff16021790555060808201518160040160006101000a81548173ffffffffffffffffffffffffffffffffffffffff021916908373ffffffffffffffffffffffffffffffffffffffff16021790555060a08201518160050160006101000a81548173ffffffffffffffffffffffffffffffffffffffff021916908373ffffffffffffffffffffffffffffffffffffffff16021790555060c08201518160060160006101000a81548173ffffffffffffffffffffffffffffffffffffffff021916908373ffffffffffffffffffffffffffffffffffffffff160217905550905050612c83828660000135613800565b612ce38560000135868060400190612c9b9190617000565b8080601f016020809104026020016040519081016040528093929190818152602001838380828437600081840152601f19601f820116905080830192505050505050506139ce565b612cf282338760000135613a42565b612cfd348233614229565b8460000135817f707ba65071f3941b3650c9f76a3a53a37f79ffd8277eb654eae8b8a83eb4a02b876020013587868733604051612d3e959493929190616ee7565b60405180910390a384600001359250505092915050565b606060018054612d649061738c565b80601f0160208091040260200160405190810160405280929190818152602001828054612d909061738c565b8015612ddd5780601f10612db257610100808354040283529160200191612ddd565b820191906000526020600020905b815481529060010190602001808311612dc057829003601f168201915b5050505050905090565b60126020528060005260406000206000915090508060000154908060010154908060020154908060030160009054906101000a900473ffffffffffffffffffffffffffffffffffffffff16908060040160009054906101000a900473ffffffffffffffffffffffffffffffffffffffff16908060050160009054906101000a900473ffffffffffffffffffffffffffffffffffffffff16908060060160009054906101000a900473ffffffffffffffffffffffffffffffffffffffff16905087565b612ebb612eb46136cd565b838361469e565b5050565b600a6020528060005260406000206000915054906101000a900473ffffffffffffffffffffffffffffffffffffffff1681565b600e6020528060005260406000206000915090505481565b612f1b612f156136cd565b83613c9e565b612f5a576040517f08c379a0000000000000000000000000000000000000000000000000000000008152600401612f5190616d4c565b60405180910390fd5b612f668484848461480b565b50505050565b6060612f7782613661565b612fb6576040517f08c379a0000000000000000000000000000000000000000000000000000000008152600401612fad90616c6c565b60405180910390fd5b6000600660008481526020019081526020016000208054612fd69061738c565b80601f01602080910402602001604051908101604052809291908181526020018280546130029061738c565b801561304f5780601f106130245761010080835404028352916020019161304f565b820191906000526020600020905b81548152906001019060200180831161303257829003601f168201915b505050505090506000613060614867565b90506000815114156130765781925050506130b9565b6000825111156130ab578082604051602001613093929190616683565b604051602081830303815290604052925050506130b9565b6130b48461487e565b925050505b919050565b60006130c98261378e565b90508073ffffffffffffffffffffffffffffffffffffffff163373ffffffffffffffffffffffffffffffffffffffff16141561313a576040517f08c379a000000000000000000000000000000000000000000000000000000000815260040161313190616d8c565b60405180910390fd5b6012600084815260200190815260200160002060050160009054906101000a900473ffffffffffffffffffffffffffffffffffffffff1673ffffffffffffffffffffffffffffffffffffffff168173ffffffffffffffffffffffffffffffffffffffff16146131de576040517f08c379a00000000000000000000000000000000000000000000000000000000081526004016131d590616dac565b60405180910390fd5b816000013560126000858152602001908152602001600020600101541461323a576040517f08c379a00000000000000000000000000000000000000000000000000000000081526004016132319061696c565b60405180910390fd5b8160200135341015613281576040517f08c379a000000000000000000000000000000000000000000000000000000000815260040161327890616e2c565b60405180910390fd5b806012600085815260200190815260200160002060040160006101000a81548173ffffffffffffffffffffffffffffffffffffffff021916908373ffffffffffffffffffffffffffffffffffffffff160217905550336012600085815260200190815260200160002060050160006101000a81548173ffffffffffffffffffffffffffffffffffffffff021916908373ffffffffffffffffffffffffffffffffffffffff16021790555061334c81336012600087815260200190815260200160002060010154613a42565b613357348433613d7c565b827f43fd502c2b3ccce9ab96e3398308b712eb7ff697a75a2afe87316bdf94af0efe8233856020013560405161338f93929190616766565b60405180910390a2505050565b600860009054906101000a900473ffffffffffffffffffffffffffffffffffffffff1673ffffffffffffffffffffffffffffffffffffffff163373ffffffffffffffffffffffffffffffffffffffff161461342c576040517f08c379a000000000000000000000000000000000000000000000000000000000815260040161342390616b4c565b60405180910390fd5b80600860006101000a81548173ffffffffffffffffffffffffffffffffffffffff021916908373ffffffffffffffffffffffffffffffffffffffff16021790555050565b6000600560008473ffffffffffffffffffffffffffffffffffffffff1673ffffffffffffffffffffffffffffffffffffffff16815260200190815260200160002060008373ffffffffffffffffffffffffffffffffffffffff1673ffffffffffffffffffffffffffffffffffffffff16815260200190815260200160002060009054906101000a900460ff16905092915050565b60116020528060005260406000206000915054906101000a900473ffffffffffffffffffffffffffffffffffffffff1681565b600860009054906101000a900473ffffffffffffffffffffffffffffffffffffffff1681565b600860009054906101000a900473ffffffffffffffffffffffffffffffffffffffff1673ffffffffffffffffffffffffffffffffffffffff163373ffffffffffffffffffffffffffffffffffffffff16146135ed576040517f08c379a00000000000000000000000000000000000000000000000000000000081526004016135e490616b4c565b60405180910390fd5b8060098190555050565b60007f01ffc9a7000000000000000000000000000000000000000000000000000000007bffffffffffffffffffffffffffffffffffffffffffffffffffffffff1916827bffffffffffffffffffffffffffffffffffffffffffffffffffffffff1916149050919050565b60008073ffffffffffffffffffffffffffffffffffffffff166002600084815260200190815260200160002060009054906101000a900473ffffffffffffffffffffffffffffffffffffffff1673ffffffffffffffffffffffffffffffffffffffff1614159050919050565b600033905090565b816004600083815260200190815260200160002060006101000a81548173ffffffffffffffffffffffffffffffffffffffff021916908373ffffffffffffffffffffffffffffffffffffffff160217905550808273ffffffffffffffffffffffffffffffffffffffff166137488361265a565b73ffffffffffffffffffffffffffffffffffffffff167f8c5be1e5ebec7d5bd14f71427d1e84f3dd0314c0f7b2291e5b200ac8c7c3b92560405160405180910390a45050565b60008061379a83614925565b90506137f8818480606001906137b09190616fa9565b8080601f016020809104026020016040519081016040528093929190818152602001838380828437600081840152601f19601f820116905080830192505050505050506149b0565b915050919050565b600073ffffffffffffffffffffffffffffffffffffffff168273ffffffffffffffffffffffffffffffffffffffff161415613870576040517f08c379a000000000000000000000000000000000000000000000000000000000815260040161386790616c4c565b60405180910390fd5b61387981613661565b156138b9576040517f08c379a00000000000000000000000000000000000000000000000000000000081526004016138b0906169ec565b60405180910390fd5b6138c5600083836149d7565b6001600360008473ffffffffffffffffffffffffffffffffffffffff1673ffffffffffffffffffffffffffffffffffffffff1681526020019081526020016000206000828254613915919061712c565b92505081905550816002600083815260200190815260200160002060006101000a81548173ffffffffffffffffffffffffffffffffffffffff021916908373ffffffffffffffffffffffffffffffffffffffff160217905550808273ffffffffffffffffffffffffffffffffffffffff16600073ffffffffffffffffffffffffffffffffffffffff167fddf252ad1be2c89b69c2b068fc378daa952ba7f163c4a11628f55a4df523b3ef60405160405180910390a45050565b6139d782613661565b613a16576040517f08c379a0000000000000000000000000000000000000000000000000000000008152600401613a0d90616bec565b60405180910390fd5b80600660008481526020019081526020016000209080519060200190613a3d92919061576e565b505050565b8273ffffffffffffffffffffffffffffffffffffffff16613a628261265a565b73ffffffffffffffffffffffffffffffffffffffff1614613ab8576040517f08c379a0000000000000000000000000000000000000000000000000000000008152600401613aaf90616cac565b60405180910390fd5b600073ffffffffffffffffffffffffffffffffffffffff168273ffffffffffffffffffffffffffffffffffffffff161415613b28576040517f08c379a0000000000000000000000000000000000000000000000000000000008152600401613b1f90616a6c565b60405180910390fd5b613b338383836149d7565b613b3e6000826136d5565b6001600360008573ffffffffffffffffffffffffffffffffffffffff1673ffffffffffffffffffffffffffffffffffffffff1681526020019081526020016000206000828254613b8e919061720d565b925050819055506001600360008473ffffffffffffffffffffffffffffffffffffffff1673ffffffffffffffffffffffffffffffffffffffff1681526020019081526020016000206000828254613be5919061712c565b92505081905550816002600083815260200190815260200160002060006101000a81548173ffffffffffffffffffffffffffffffffffffffff021916908373ffffffffffffffffffffffffffffffffffffffff160217905550808273ffffffffffffffffffffffffffffffffffffffff168473ffffffffffffffffffffffffffffffffffffffff167fddf252ad1be2c89b69c2b068fc378daa952ba7f163c4a11628f55a4df523b3ef60405160405180910390a4505050565b6000613ca982613661565b613ce8576040517f08c379a0000000000000000000000000000000000000000000000000000000008152600401613cdf90616b2c565b60405180910390fd5b6000613cf38361265a565b90508073ffffffffffffffffffffffffffffffffffffffff168473ffffffffffffffffffffffffffffffffffffffff161480613d6257508373ffffffffffffffffffffffffffffffffffffffff16613d4a84610a96565b73ffffffffffffffffffffffffffffffffffffffff16145b80613d735750613d728185613470565b5b91505092915050565b60006064846012600086815260200190815260200160002060020154613da291906171b3565b613dac9190617182565b9050600060648560126000878152602001908152602001600020600201546064613dd6919061720d565b613de091906171b3565b613dea9190617182565b9050600073ffffffffffffffffffffffffffffffffffffffff166012600086815260200190815260200160002060060160009054906101000a900473ffffffffffffffffffffffffffffffffffffffff1673ffffffffffffffffffffffffffffffffffffffff161415613f56576012600085815260200190815260200160002060030160009054906101000a900473ffffffffffffffffffffffffffffffffffffffff1673ffffffffffffffffffffffffffffffffffffffff166108fc839081150290604051600060405180830381858888f19350505050158015613ed3573d6000803e3d6000fd5b506012600085815260200190815260200160002060040160009054906101000a900473ffffffffffffffffffffffffffffffffffffffff1673ffffffffffffffffffffffffffffffffffffffff166108fc829081150290604051600060405180830381858888f19350505050158015613f50573d6000803e3d6000fd5b506141ab565b60006012600086815260200190815260200160002060060160009054906101000a900473ffffffffffffffffffffffffffffffffffffffff1690508073ffffffffffffffffffffffffffffffffffffffff166323b872dd8530896040518463ffffffff1660e01b8152600401613fce93929190616766565b602060405180830381600087803b158015613fe857600080fd5b505af1158015613ffc573d6000803e3d6000fd5b505050506040513d601f19601f820116820180604052508101906140209190615b8b565b508073ffffffffffffffffffffffffffffffffffffffff1663a9059cbb6012600088815260200190815260200160002060030160009054906101000a900473ffffffffffffffffffffffffffffffffffffffff16856040518363ffffffff1660e01b8152600401614092929190616714565b602060405180830381600087803b1580156140ac57600080fd5b505af11580156140c0573d6000803e3d6000fd5b505050506040513d601f19601f820116820180604052508101906140e49190615b8b565b508073ffffffffffffffffffffffffffffffffffffffff1663a9059cbb6012600088815260200190815260200160002060040160009054906101000a900473ffffffffffffffffffffffffffffffffffffffff16846040518363ffffffff1660e01b8152600401614156929190616714565b602060405180830381600087803b15801561417057600080fd5b505af1158015614184573d6000803e3d6000fd5b505050506040513d601f19601f820116820180604052508101906141a89190615b8b565b50505b5050505050565b6141bb816149dc565b60006006600083815260200190815260200160002080546141db9061738c565b9050146142025760066000828152602001908152602001600020600061420191906157f4565b5b50565b6001816000016000828254019250508190555050565b600081600001549050919050565b6000839050600060648260095461424091906171b3565b61424a9190617182565b905060006064836009546064614260919061720d565b61426a91906171b3565b6142749190617182565b9050600073ffffffffffffffffffffffffffffffffffffffff166012600087815260200190815260200160002060060160009054906101000a900473ffffffffffffffffffffffffffffffffffffffff1673ffffffffffffffffffffffffffffffffffffffff1614156143cc57600860009054906101000a900473ffffffffffffffffffffffffffffffffffffffff1673ffffffffffffffffffffffffffffffffffffffff166108fc839081150290604051600060405180830381858888f19350505050158015614349573d6000803e3d6000fd5b506012600086815260200190815260200160002060040160009054906101000a900473ffffffffffffffffffffffffffffffffffffffff1673ffffffffffffffffffffffffffffffffffffffff166108fc829081150290604051600060405180830381858888f193505050501580156143c6573d6000803e3d6000fd5b5061460d565b60006012600087815260200190815260200160002060060160009054906101000a900473ffffffffffffffffffffffffffffffffffffffff1690508073ffffffffffffffffffffffffffffffffffffffff166323b872dd8630876040518463ffffffff1660e01b815260040161444493929190616766565b602060405180830381600087803b15801561445e57600080fd5b505af1158015614472573d6000803e3d6000fd5b505050506040513d601f19601f820116820180604052508101906144969190615b8b565b508073ffffffffffffffffffffffffffffffffffffffff1663a9059cbb600860009054906101000a900473ffffffffffffffffffffffffffffffffffffffff16856040518363ffffffff1660e01b81526004016144f4929190616714565b602060405180830381600087803b15801561450e57600080fd5b505af1158015614522573d6000803e3d6000fd5b505050506040513d601f19601f820116820180604052508101906145469190615b8b565b508073ffffffffffffffffffffffffffffffffffffffff1663a9059cbb6012600089815260200190815260200160002060040160009054906101000a900473ffffffffffffffffffffffffffffffffffffffff16846040518363ffffffff1660e01b81526004016145b8929190616714565b602060405180830381600087803b1580156145d257600080fd5b505af11580156145e6573d6000803e3d6000fd5b505050506040513d601f19601f8201168201806040525081019061460a9190615b8b565b50505b505050505050565b614698846323b872dd60e01b85858560405160240161463693929190616766565b604051602081830303815290604052907bffffffffffffffffffffffffffffffffffffffffffffffffffffffff19166020820180517bffffffffffffffffffffffffffffffffffffffffffffffffffffffff8381831617835250505050614aed565b50505050565b8173ffffffffffffffffffffffffffffffffffffffff168373ffffffffffffffffffffffffffffffffffffffff16141561470d576040517f08c379a000000000000000000000000000000000000000000000000000000000815260040161470490616a8c565b60405180910390fd5b80600560008573ffffffffffffffffffffffffffffffffffffffff1673ffffffffffffffffffffffffffffffffffffffff16815260200190815260200160002060008473ffffffffffffffffffffffffffffffffffffffff1673ffffffffffffffffffffffffffffffffffffffff16815260200190815260200160002060006101000a81548160ff0219169083151502179055508173ffffffffffffffffffffffffffffffffffffffff168373ffffffffffffffffffffffffffffffffffffffff167f17307eab39ab6107e8899845ad3d59bd9653f200f220920489ca2b5937696c31836040516147fe9190616812565b60405180910390a3505050565b614816848484613a42565b61482284848484614bb4565b614861576040517f08c379a0000000000000000000000000000000000000000000000000000000008152600401614858906169cc565b60405180910390fd5b50505050565b606060405180602001604052806000815250905090565b606061488982613661565b6148c8576040517f08c379a00000000000000000000000000000000000000000000000000000000081526004016148bf90616ccc565b60405180910390fd5b60006148d2614867565b905060008151116148f2576040518060200160405280600081525061491d565b806148fc84614d4b565b60405160200161490d929190616683565b6040516020818303038152906040525b915050919050565b60006149a97f6316f9ddd4d59a364f3b95c26bab9d392c3380ace0fff15e91ed76f0d8bcd15a836000013584602001358580604001906149659190617000565b604051614973929190616653565b604051809103902060405160200161498e9493929190616880565b60405160208183030381529060405280519060200120614ef8565b9050919050565b60008060006149bf8585614f12565b915091506149cc81614f95565b819250505092915050565b505050565b60006149e78261265a565b90506149f5816000846149d7565b614a006000836136d5565b6001600360008373ffffffffffffffffffffffffffffffffffffffff1673ffffffffffffffffffffffffffffffffffffffff1681526020019081526020016000206000828254614a50919061720d565b925050819055506002600083815260200190815260200160002060006101000a81549073ffffffffffffffffffffffffffffffffffffffff021916905581600073ffffffffffffffffffffffffffffffffffffffff168273ffffffffffffffffffffffffffffffffffffffff167fddf252ad1be2c89b69c2b068fc378daa952ba7f163c4a11628f55a4df523b3ef60405160405180910390a45050565b6000614b4f826040518060400160405280602081526020017f5361666545524332303a206c6f772d6c6576656c2063616c6c206661696c65648152508573ffffffffffffffffffffffffffffffffffffffff166152e69092919063ffffffff16565b9050600081511115614baf5780806020019051810190614b6f9190615b8b565b614bae576040517f08c379a0000000000000000000000000000000000000000000000000000000008152600401614ba590616dec565b60405180910390fd5b5b505050565b6000614bd58473ffffffffffffffffffffffffffffffffffffffff166152fe565b15614d3e578373ffffffffffffffffffffffffffffffffffffffff1663150b7a02614bfe6136cd565b8786866040518563ffffffff1660e01b8152600401614c20949392919061679d565b602060405180830381600087803b158015614c3a57600080fd5b505af1925050508015614c6b57506040513d601f19601f82011682018060405250810190614c689190615bdd565b60015b614cee573d8060008114614c9b576040519150601f19603f3d011682016040523d82523d6000602084013e614ca0565b606091505b50600081511415614ce6576040517f08c379a0000000000000000000000000000000000000000000000000000000008152600401614cdd906169cc565b60405180910390fd5b805181602001fd5b63150b7a0260e01b7bffffffffffffffffffffffffffffffffffffffffffffffffffffffff1916817bffffffffffffffffffffffffffffffffffffffffffffffffffffffff191614915050614d43565b600190505b949350505050565b60606000821415614d93576040518060400160405280600181526020017f30000000000000000000000000000000000000000000000000000000000000008152509050614ef3565b600082905060005b60008214614dc5578080614dae906173ef565b915050600a82614dbe9190617182565b9150614d9b565b60008167ffffffffffffffff811115614e07577f4e487b7100000000000000000000000000000000000000000000000000000000600052604160045260246000fd5b6040519080825280601f01601f191660200182016040528015614e395781602001600182028036833780820191505090505b5090505b60008514614eec57600182614e52919061720d565b9150600a85614e619190617442565b6030614e6d919061712c565b60f81b818381518110614ea9577f4e487b7100000000000000000000000000000000000000000000000000000000600052603260045260246000fd5b60200101907effffffffffffffffffffffffffffffffffffffffffffffffffffffffffffff1916908160001a905350600a85614ee59190617182565b9450614e3d565b8093505050505b919050565b6000614f0b614f05615311565b8361542b565b9050919050565b600080604183511415614f545760008060006020860151925060408601519150606086015160001a9050614f488782858561545e565b94509450505050614f8e565b604083511415614f85576000806020850151915060408501519050614f7a86838361556b565b935093505050614f8e565b60006002915091505b9250929050565b60006004811115614fcf577f4e487b7100000000000000000000000000000000000000000000000000000000600052602160045260246000fd5b816004811115615008577f4e487b7100000000000000000000000000000000000000000000000000000000600052602160045260246000fd5b1415615013576152e3565b6001600481111561504d577f4e487b7100000000000000000000000000000000000000000000000000000000600052602160045260246000fd5b816004811115615086577f4e487b7100000000000000000000000000000000000000000000000000000000600052602160045260246000fd5b14156150c7576040517f08c379a00000000000000000000000000000000000000000000000000000000081526004016150be9061692c565b60405180910390fd5b60026004811115615101577f4e487b7100000000000000000000000000000000000000000000000000000000600052602160045260246000fd5b81600481111561513a577f4e487b7100000000000000000000000000000000000000000000000000000000600052602160045260246000fd5b141561517b576040517f08c379a00000000000000000000000000000000000000000000000000000000081526004016151729061698c565b60405180910390fd5b600360048111156151b5577f4e487b7100000000000000000000000000000000000000000000000000000000600052602160045260246000fd5b8160048111156151ee577f4e487b7100000000000000000000000000000000000000000000000000000000600052602160045260246000fd5b141561522f576040517f08c379a000000000000000000000000000000000000000000000000000000000815260040161522690616aec565b60405180910390fd5b600480811115615268577f4e487b7100000000000000000000000000000000000000000000000000000000600052602160045260246000fd5b8160048111156152a1577f4e487b7100000000000000000000000000000000000000000000000000000000600052602160045260246000fd5b14156152e2576040517f08c379a00000000000000000000000000000000000000000000000000000000081526004016152d990616c2c565b60405180910390fd5b5b50565b60606152f584846000856155b9565b90509392505050565b600080823b905060008111915050919050565b60007f000000000000000000000000000000000000000000000000000000000000000073ffffffffffffffffffffffffffffffffffffffff163073ffffffffffffffffffffffffffffffffffffffff1614801561538d57507f000000000000000000000000000000000000000000000000000000000000000046145b156153ba577f00000000000000000000000000000000000000000000000000000000000000009050615428565b6154257f00000000000000000000000000000000000000000000000000000000000000007f00000000000000000000000000000000000000000000000000000000000000007f00000000000000000000000000000000000000000000000000000000000000006156cd565b90505b90565b600082826040516020016154409291906166a7565b60405160208183030381529060405280519060200120905092915050565b6000807f7fffffffffffffffffffffffffffffff5d576e7357a4501ddfe92f46681b20a08360001c1115615499576000600391509150615562565b601b8560ff16141580156154b15750601c8560ff1614155b156154c3576000600491509150615562565b6000600187878787604051600081526020016040526040516154e894939291906168c5565b6020604051602081039080840390855afa15801561550a573d6000803e3d6000fd5b505050602060405103519050600073ffffffffffffffffffffffffffffffffffffffff168173ffffffffffffffffffffffffffffffffffffffff16141561555957600060019250925050615562565b80600092509250505b94509492505050565b6000806000807f7fffffffffffffffffffffffffffffffffffffffffffffffffffffffffffffff85169150601b8560ff1c0190506155ab8782888561545e565b935093505050935093915050565b6060824710156155fe576040517f08c379a00000000000000000000000000000000000000000000000000000000081526004016155f590616b0c565b60405180910390fd5b615607856152fe565b615646576040517f08c379a000000000000000000000000000000000000000000000000000000000815260040161563d90616d6c565b60405180910390fd5b6000808673ffffffffffffffffffffffffffffffffffffffff16858760405161566f919061666c565b60006040518083038185875af1925050503d80600081146156ac576040519150601f19603f3d011682016040523d82523d6000602084013e6156b1565b606091505b50915091506156c1828286615707565b92505050949350505050565b600083838346306040516020016156e895949392919061682d565b6040516020818303038152906040528051906020012090509392505050565b6060831561571757829050615767565b60008351111561572a5782518084602001fd5b816040517f08c379a000000000000000000000000000000000000000000000000000000000815260040161575e919061690a565b60405180910390fd5b9392505050565b82805461577a9061738c565b90600052602060002090601f01602090048101928261579c57600085556157e3565b82601f106157b557805160ff19168380011785556157e3565b828001600101855582156157e3579182015b828111156157e25782518255916020019190600101906157c7565b5b5090506157f09190615834565b5090565b5080546158009061738c565b6000825580601f106158125750615831565b601f0160209004906000526020600020908101906158309190615834565b5b50565b5b8082111561584d576000816000905550600101615835565b5090565b600061586461585f8461707c565b617057565b90508281526020810184848401111561587c57600080fd5b61588784828561734a565b509392505050565b60006158a261589d846170ad565b617057565b9050828152602081018484840111156158ba57600080fd5b6158c584828561734a565b509392505050565b6000813590506158dc81617f8d565b92915050565b6000813590506158f181617fa4565b92915050565b60008151905061590681617fa4565b92915050565b60008135905061591b81617fbb565b92915050565b60008151905061593081617fbb565b92915050565b600082601f83011261594757600080fd5b8135615957848260208601615851565b91505092915050565b60008135905061596f81617fd2565b92915050565b600082601f83011261598657600080fd5b813561599684826020860161588f565b91505092915050565b6000608082840312156159b157600080fd5b81905092915050565b6000813590506159c981617fe9565b92915050565b6000815190506159de81617fe9565b92915050565b6000602082840312156159f657600080fd5b6000615a04848285016158cd565b91505092915050565b60008060408385031215615a2057600080fd5b6000615a2e858286016158cd565b9250506020615a3f858286016158cd565b9150509250929050565b600080600060608486031215615a5e57600080fd5b6000615a6c868287016158cd565b9350506020615a7d868287016158cd565b9250506040615a8e868287016159ba565b9150509250925092565b60008060008060808587031215615aae57600080fd5b6000615abc878288016158cd565b9450506020615acd878288016158cd565b9350506040615ade878288016159ba565b925050606085013567ffffffffffffffff811115615afb57600080fd5b615b0787828801615936565b91505092959194509250565b60008060408385031215615b2657600080fd5b6000615b34858286016158cd565b9250506020615b45858286016158e2565b9150509250929050565b60008060408385031215615b6257600080fd5b6000615b70858286016158cd565b9250506020615b81858286016159ba565b9150509250929050565b600060208284031215615b9d57600080fd5b6000615bab848285016158f7565b91505092915050565b600060208284031215615bc657600080fd5b6000615bd48482850161590c565b91505092915050565b600060208284031215615bef57600080fd5b6000615bfd84828501615921565b91505092915050565b60008060408385031215615c1957600080fd5b600083013567ffffffffffffffff811115615c3357600080fd5b615c3f8582860161599f565b9250506020615c50858286016158cd565b9150509250929050565b60008060408385031215615c6d57600080fd5b600083013567ffffffffffffffff811115615c8757600080fd5b615c938582860161599f565b9250506020615ca4858286016159ba565b9150509250929050565b600080600060608486031215615cc357600080fd5b600084013567ffffffffffffffff811115615cdd57600080fd5b615ce98682870161599f565b9350506020615cfa868287016159ba565b9250506040615d0b86828701615960565b9150509250925092565b600060208284031215615d2757600080fd5b6000615d35848285016159ba565b91505092915050565b600060208284031215615d5057600080fd5b6000615d5e848285016159cf565b91505092915050565b60008060408385031215615d7a57600080fd5b6000615d88858286016159ba565b9250506020615d99858286016158cd565b9150509250929050565b60008060408385031215615db657600080fd5b6000615dc4858286016159ba565b925050602083013567ffffffffffffffff811115615de157600080fd5b615ded85828601615975565b9150509250929050565b60008060408385031215615e0a57600080fd5b6000615e18858286016159ba565b925050602083013567ffffffffffffffff811115615e3557600080fd5b615e418582860161599f565b9150509250929050565b60008060408385031215615e5e57600080fd5b6000615e6c858286016159ba565b9250506020615e7d858286016159ba565b9150509250929050565b60008060008060808587031215615e9d57600080fd5b6000615eab878288016159ba565b9450506020615ebc878288016159ba565b9350506040615ecd878288016159ba565b9250506060615ede878288016158cd565b91505092959194509250565b615ef3816172f0565b82525050565b615f0281617253565b82525050565b615f1181617241565b82525050565b615f2081617265565b82525050565b615f2f81617271565b82525050565b615f46615f4182617271565b617438565b82525050565b6000615f588385617105565b9350615f6583858461734a565b82840190509392505050565b6000615f7c826170de565b615f8681856170f4565b9350615f96818560208601617359565b615f9f8161752f565b840191505092915050565b6000615fb5826170de565b615fbf8185617105565b9350615fcf818560208601617359565b80840191505092915050565b615fe481617302565b82525050565b6000615ff5826170e9565b615fff8185617110565b935061600f818560208601617359565b6160188161752f565b840191505092915050565b600061602e826170e9565b6160388185617121565b9350616048818560208601617359565b80840191505092915050565b6000616061601883617110565b915061606c82617540565b602082019050919050565b6000616084602783617110565b915061608f82617569565b604082019050919050565b60006160a7603b83617110565b91506160b2826175b8565b604082019050919050565b60006160ca601f83617110565b91506160d582617607565b602082019050919050565b60006160ed601083617110565b91506160f882617630565b602082019050919050565b6000616110603283617110565b915061611b82617659565b604082019050919050565b6000616133601c83617110565b915061613e826176a8565b602082019050919050565b6000616156601983617110565b9150616161826176d1565b602082019050919050565b6000616179600283617121565b9150616184826176fa565b600282019050919050565b600061619c602d83617110565b91506161a782617723565b604082019050919050565b60006161bf601083617110565b91506161ca82617772565b602082019050919050565b60006161e2602483617110565b91506161ed8261779b565b604082019050919050565b6000616205601983617110565b9150616210826177ea565b602082019050919050565b6000616228600683617110565b915061623382617813565b602082019050919050565b600061624b601183617110565b91506162568261783c565b602082019050919050565b600061626e602283617110565b915061627982617865565b604082019050919050565b6000616291602683617110565b915061629c826178b4565b604082019050919050565b60006162b4602c83617110565b91506162bf82617903565b604082019050919050565b60006162d7601a83617110565b91506162e282617952565b602082019050919050565b60006162fa603883617110565b91506163058261797b565b604082019050919050565b600061631d602a83617110565b9150616328826179ca565b604082019050919050565b6000616340602983617110565b915061634b82617a19565b604082019050919050565b6000616363602283617110565b915061636e82617a68565b604082019050919050565b6000616386602e83617110565b915061639182617ab7565b604082019050919050565b60006163a9601883617110565b91506163b482617b06565b602082019050919050565b60006163cc602283617110565b91506163d782617b2f565b604082019050919050565b60006163ef602083617110565b91506163fa82617b7e565b602082019050919050565b6000616412603183617110565b915061641d82617ba7565b604082019050919050565b6000616435602c83617110565b915061644082617bf6565b604082019050919050565b6000616458602983617110565b915061646382617c45565b604082019050919050565b600061647b602f83617110565b915061648682617c94565b604082019050919050565b600061649e601683617110565b91506164a982617ce3565b602082019050919050565b60006164c1602183617110565b91506164cc82617d0c565b604082019050919050565b60006164e4600c83617110565b91506164ef82617d5b565b602082019050919050565b6000616507603183617110565b915061651282617d84565b604082019050919050565b600061652a601d83617110565b915061653582617dd3565b602082019050919050565b600061654d602283617110565b915061655882617dfc565b604082019050919050565b6000616570601f83617110565b915061657b82617e4b565b602082019050919050565b6000616593600c83617110565b915061659e82617e74565b602082019050919050565b60006165b6602a83617110565b91506165c182617e9d565b604082019050919050565b60006165d9601683617110565b91506165e482617eec565b602082019050919050565b60006165fc602d83617110565b915061660782617f15565b604082019050919050565b600061661f601783617110565b915061662a82617f64565b602082019050919050565b61663e816172d9565b82525050565b61664d816172e3565b82525050565b6000616660828486615f4c565b91508190509392505050565b60006166788284615faa565b915081905092915050565b600061668f8285616023565b915061669b8284616023565b91508190509392505050565b60006166b28261616c565b91506166be8285615f35565b6020820191506166ce8284615f35565b6020820191508190509392505050565b60006020820190506166f36000830184615f08565b92915050565b600060208201905061670e6000830184615ef9565b92915050565b60006040820190506167296000830185615eea565b6167366020830184616635565b9392505050565b60006040820190506167526000830185615f08565b61675f6020830184615f08565b9392505050565b600060608201905061677b6000830186615f08565b6167886020830185615f08565b6167956040830184616635565b949350505050565b60006080820190506167b26000830187615f08565b6167bf6020830186615f08565b6167cc6040830185616635565b81810360608301526167de8184615f71565b905095945050505050565b60006040820190506167fe6000830185615f08565b61680b6020830184616635565b9392505050565b60006020820190506168276000830184615f17565b92915050565b600060a0820190506168426000830188615f26565b61684f6020830187615f26565b61685c6040830186615f26565b6168696060830185616635565b6168766080830184615f08565b9695505050505050565b60006080820190506168956000830187615f26565b6168a26020830186616635565b6168af6040830185616635565b6168bc6060830184615f26565b95945050505050565b60006080820190506168da6000830187615f26565b6168e76020830186616644565b6168f46040830185615f26565b6169016060830184615f26565b95945050505050565b600060208201905081810360008301526169248184615fea565b905092915050565b6000602082019050818103600083015261694581616054565b9050919050565b6000602082019050818103600083015261696581616077565b9050919050565b600060208201905081810360008301526169858161609a565b9050919050565b600060208201905081810360008301526169a5816160bd565b9050919050565b600060208201905081810360008301526169c5816160e0565b9050919050565b600060208201905081810360008301526169e581616103565b9050919050565b60006020820190508181036000830152616a0581616126565b9050919050565b60006020820190508181036000830152616a2581616149565b9050919050565b60006020820190508181036000830152616a458161618f565b9050919050565b60006020820190508181036000830152616a65816161b2565b9050919050565b60006020820190508181036000830152616a85816161d5565b9050919050565b60006020820190508181036000830152616aa5816161f8565b9050919050565b60006020820190508181036000830152616ac58161621b565b9050919050565b60006020820190508181036000830152616ae58161623e565b9050919050565b60006020820190508181036000830152616b0581616261565b9050919050565b60006020820190508181036000830152616b2581616284565b9050919050565b60006020820190508181036000830152616b45816162a7565b9050919050565b60006020820190508181036000830152616b65816162ca565b9050919050565b60006020820190508181036000830152616b85816162ed565b9050919050565b60006020820190508181036000830152616ba581616310565b9050919050565b60006020820190508181036000830152616bc581616333565b9050919050565b60006020820190508181036000830152616be581616356565b9050919050565b60006020820190508181036000830152616c0581616379565b9050919050565b60006020820190508181036000830152616c258161639c565b9050919050565b60006020820190508181036000830152616c45816163bf565b9050919050565b60006020820190508181036000830152616c65816163e2565b9050919050565b60006020820190508181036000830152616c8581616405565b9050919050565b60006020820190508181036000830152616ca581616428565b9050919050565b60006020820190508181036000830152616cc58161644b565b9050919050565b60006020820190508181036000830152616ce58161646e565b9050919050565b60006020820190508181036000830152616d0581616491565b9050919050565b60006020820190508181036000830152616d25816164b4565b9050919050565b60006020820190508181036000830152616d45816164d7565b9050919050565b60006020820190508181036000830152616d65816164fa565b9050919050565b60006020820190508181036000830152616d858161651d565b9050919050565b60006020820190508181036000830152616da581616540565b9050919050565b60006020820190508181036000830152616dc581616563565b9050919050565b60006020820190508181036000830152616de581616586565b9050919050565b60006020820190508181036000830152616e05816165a9565b9050919050565b60006020820190508181036000830152616e25816165cc565b9050919050565b60006020820190508181036000830152616e45816165ef565b9050919050565b60006020820190508181036000830152616e6581616612565b9050919050565b6000602082019050616e816000830184616635565b92915050565b6000606082019050616e9c6000830186616635565b616ea96020830185615f08565b616eb66040830184616635565b949350505050565b6000604082019050616ed36000830185616635565b616ee06020830184616635565b9392505050565b600060a082019050616efc6000830188616635565b616f096020830187616635565b616f166040830186615f08565b616f236060830185615f08565b616f306080830184615f08565b9695505050505050565b600060e082019050616f4f600083018a616635565b616f5c6020830189616635565b616f696040830188616635565b616f766060830187615ef9565b616f836080830186615ef9565b616f9060a0830185615ef9565b616f9d60c0830184615fdb565b98975050505050505050565b60008083356001602003843603038112616fc257600080fd5b80840192508235915067ffffffffffffffff821115616fe057600080fd5b602083019250600182023603831315616ff857600080fd5b509250929050565b6000808335600160200384360303811261701957600080fd5b80840192508235915067ffffffffffffffff82111561703757600080fd5b60208301925060018202360383131561704f57600080fd5b509250929050565b6000617061617072565b905061706d82826173be565b919050565b6000604051905090565b600067ffffffffffffffff82111561709757617096617500565b5b6170a08261752f565b9050602081019050919050565b600067ffffffffffffffff8211156170c8576170c7617500565b5b6170d18261752f565b9050602081019050919050565b600081519050919050565b600081519050919050565b600082825260208201905092915050565b600081905092915050565b600082825260208201905092915050565b600081905092915050565b6000617137826172d9565b9150617142836172d9565b9250827fffffffffffffffffffffffffffffffffffffffffffffffffffffffffffffffff0382111561717757617176617473565b5b828201905092915050565b600061718d826172d9565b9150617198836172d9565b9250826171a8576171a76174a2565b5b828204905092915050565b60006171be826172d9565b91506171c9836172d9565b9250817fffffffffffffffffffffffffffffffffffffffffffffffffffffffffffffffff048311821515161561720257617201617473565b5b828202905092915050565b6000617218826172d9565b9150617223836172d9565b92508282101561723657617235617473565b5b828203905092915050565b600061724c826172b9565b9050919050565b600061725e826172b9565b9050919050565b60008115159050919050565b6000819050919050565b60007fffffffff0000000000000000000000000000000000000000000000000000000082169050919050565b60006172b282617241565b9050919050565b600073ffffffffffffffffffffffffffffffffffffffff82169050919050565b6000819050919050565b600060ff82169050919050565b60006172fb82617326565b9050919050565b600061730d82617314565b9050919050565b600061731f826172b9565b9050919050565b600061733182617338565b9050919050565b6000617343826172b9565b9050919050565b82818337600083830152505050565b60005b8381101561737757808201518184015260208101905061735c565b83811115617386576000848401525b50505050565b600060028204905060018216806173a457607f821691505b602082108114156173b8576173b76174d1565b5b50919050565b6173c78261752f565b810181811067ffffffffffffffff821117156173e6576173e5617500565b5b80604052505050565b60006173fa826172d9565b91507fffffffffffffffffffffffffffffffffffffffffffffffffffffffffffffffff82141561742d5761742c617473565b5b600182019050919050565b6000819050919050565b600061744d826172d9565b9150617458836172d9565b925082617468576174676174a2565b5b828206905092915050565b7f4e487b7100000000000000000000000000000000000000000000000000000000600052601160045260246000fd5b7f4e487b7100000000000000000000000000000000000000000000000000000000600052601260045260246000fd5b7f4e487b7100000000000000000000000000000000000000000000000000000000600052602260045260246000fd5b7f4e487b7100000000000000000000000000000000000000000000000000000000600052604160045260246000fd5b6000601f19601f8301169050919050565b7f45434453413a20696e76616c6964207369676e61747572650000000000000000600082015250565b7f6269642076616c7565206d757374206265206d6f7265207468616e206869676860008201527f6573742062696400000000000000000000000000000000000000000000000000602082015250565b7f566f7563686572277320746f6b656e496420616e64206d61726b65746974656d60008201527f277320746f6b656e496420617265206e6f74206d61746368696e670000000000602082015250565b7f45434453413a20696e76616c6964207369676e6174757265206c656e67746800600082015250565b7f426964646572206e6f7420666f756e6400000000000000000000000000000000600082015250565b7f4552433732313a207472616e7366657220746f206e6f6e20455243373231526560008201527f63656976657220696d706c656d656e7465720000000000000000000000000000602082015250565b7f4552433732313a20746f6b656e20616c7265616479206d696e74656400000000600082015250565b7f41756374696f6e206973207374696c6c206f6e676f696e672100000000000000600082015250565b7f1901000000000000000000000000000000000000000000000000000000000000600082015250565b7f53656c6c65727320617265206e6f7420616c6c6f77656420746f2063616c6c2060008201527f746869732066756e6374696f6e00000000000000000000000000000000000000602082015250565b7f416c726561647920737461727465642100000000000000000000000000000000600082015250565b7f4552433732313a207472616e7366657220746f20746865207a65726f2061646460008201527f7265737300000000000000000000000000000000000000000000000000000000602082015250565b7f4552433732313a20617070726f766520746f2063616c6c657200000000000000600082015250565b7f456e646564210000000000000000000000000000000000000000000000000000600082015250565b7f496e76616c6964207369676e6174757265000000000000000000000000000000600082015250565b7f45434453413a20696e76616c6964207369676e6174757265202773272076616c60008201527f7565000000000000000000000000000000000000000000000000000000000000602082015250565b7f416464726573733a20696e73756666696369656e742062616c616e636520666f60008201527f722063616c6c0000000000000000000000000000000000000000000000000000602082015250565b7f4552433732313a206f70657261746f7220717565727920666f72206e6f6e657860008201527f697374656e7420746f6b656e0000000000000000000000000000000000000000602082015250565b7f4f6e6c792061646d696e2063616e206163636573732074686973000000000000600082015250565b7f4552433732313a20617070726f76652063616c6c6572206973206e6f74206f7760008201527f6e6572206e6f7220617070726f76656420666f7220616c6c0000000000000000602082015250565b7f4552433732313a2062616c616e636520717565727920666f7220746865207a6560008201527f726f206164647265737300000000000000000000000000000000000000000000602082015250565b7f4552433732313a206f776e657220717565727920666f72206e6f6e657869737460008201527f656e7420746f6b656e0000000000000000000000000000000000000000000000602082015250565b7f4f6e6c7920612063726561746f722063616e20656e642074686520617563746960008201527f6f6e000000000000000000000000000000000000000000000000000000000000602082015250565b7f45524337323155524953746f726167653a2055524920736574206f66206e6f6e60008201527f6578697374656e7420746f6b656e000000000000000000000000000000000000602082015250565b7f596f75206e65656420746f207374617274206669727374210000000000000000600082015250565b7f45434453413a20696e76616c6964207369676e6174757265202776272076616c60008201527f7565000000000000000000000000000000000000000000000000000000000000602082015250565b7f4552433732313a206d696e7420746f20746865207a65726f2061646472657373600082015250565b7f45524337323155524953746f726167653a2055524920717565727920666f722060008201527f6e6f6e6578697374656e7420746f6b656e000000000000000000000000000000602082015250565b7f4552433732313a20617070726f76656420717565727920666f72206e6f6e657860008201527f697374656e7420746f6b656e0000000000000000000000000000000000000000602082015250565b7f4552433732313a207472616e73666572206f6620746f6b656e2074686174206960008201527f73206e6f74206f776e0000000000000000000000000000000000000000000000602082015250565b7f4552433732314d657461646174613a2055524920717565727920666f72206e6f60008201527f6e6578697374656e7420746f6b656e0000000000000000000000000000000000602082015250565b7f41756374696f6e206e6f7420656e646564207965742100000000000000000000600082015250565b7f4552433732313a20617070726f76616c20746f2063757272656e74206f776e6560008201527f7200000000000000000000000000000000000000000000000000000000000000602082015250565b7f4e6f7420737461727465642e0000000000000000000000000000000000000000600082015250565b7f4552433732313a207472616e736665722063616c6c6572206973206e6f74206f60008201527f776e6572206e6f7220617070726f766564000000000000000000000000000000602082015250565b7f416464726573733a2063616c6c20746f206e6f6e2d636f6e7472616374000000600082015250565b7f53656c6c6572732063616e2774206275792066726f6d206d61726b6574706c6160008201527f6365000000000000000000000000000000000000000000000000000000000000602082015250565b7f4f6e6c79206f776e65722063616e207472616e7366657220746865204e465400600082015250565b7f5a65726f2062616c616e63650000000000000000000000000000000000000000600082015250565b7f5361666545524332303a204552433230206f7065726174696f6e20646964206e60008201527f6f74207375636365656400000000000000000000000000000000000000000000602082015250565b7f41756374696f6e20616c726561647920656e6465642100000000000000000000600082015250565b7f4d757374207375626d69742061746c6561737420746865206d696e207072696360008201527f6520746f20707572636861736500000000000000000000000000000000000000602082015250565b7f496e76616c696420746f6b656e20616c6c6f77616e6365000000000000000000600082015250565b617f9681617241565b8114617fa157600080fd5b50565b617fad81617265565b8114617fb857600080fd5b50565b617fc48161727b565b8114617fcf57600080fd5b50565b617fdb816172a7565b8114617fe657600080fd5b50565b617ff2816172d9565b8114617ffd57600080fd5b5056fea264697066735822122073fefca6ad400a60f141be66cb5df863629005ffe36c4013b1d8074a5bfaccfd64736f6c63430008040033",
  "immutableReferences": {
    "2824": [
      {
        "length": 32,
        "start": 21396
      }
    ],
    "2826": [
      {
        "length": 32,
        "start": 21355
      }
    ],
    "2828": [
      {
        "length": 32,
        "start": 21269
      }
    ],
    "2830": [
      {
        "length": 32,
        "start": 21472
      }
    ],
    "2832": [
      {
        "length": 32,
        "start": 21505
      }
    ],
    "2834": [
      {
        "length": 32,
        "start": 21439
      }
    ]
  },
  "source": "//SPDX-License-Identifier: MIT\r\npragma solidity ^0.8.0;\r\npragma abicoder v2; // required to accept structs as function parameters\r\n\r\n// import \"@openzeppelin/contracts/access/AccessControl.sol\";\r\nimport \"@openzeppelin/contracts/token/ERC721/ERC721.sol\";\r\nimport \"@openzeppelin/contracts/token/ERC721/extensions/ERC721URIStorage.sol\";\r\nimport \"@openzeppelin/contracts/utils/Counters.sol\";\r\n// import \"@openzeppelin/contracts/security/ReentrancyGuard.sol\";\r\nimport \"@openzeppelin/contracts/utils/cryptography/ECDSA.sol\";\r\nimport \"@openzeppelin/contracts/utils/cryptography/draft-EIP712.sol\";\r\nimport \"@openzeppelin/contracts/token/ERC20/utils/SafeERC20.sol\";\r\nimport \"@openzeppelin/contracts/token/ERC20/IERC20.sol\";\r\n\r\ncontract NFT11 is ERC721URIStorage, EIP712 {\r\n    //auto-increment field for each token\r\n    using SafeERC20 for IERC20;\r\n    using Counters for Counters.Counter;\r\n    Counters.Counter private _itemIds;\r\n    address payable public admin;\r\n    uint256 public platformCommission;\r\n    mapping(uint256 => address) public seller;\r\n    mapping(uint256 => bool) public started;\r\n    mapping(uint256 => bool) public ended;\r\n    mapping(uint256 => uint256) public endAt;\r\n    mapping(uint256 => uint256) public highestBid;\r\n    mapping(uint256 => address) public highestBidder;\r\n    mapping(uint256 => mapping(address => uint256)) public bids;\r\n    mapping(uint256 => address) public auctionPurchaseToken;\r\n\r\n    // Counters.Counter private _tokenIds;\r\n\r\n    // address contractAddress;\r\n\r\n    // bytes32 public constant MINTER_ROLE = keccak256(\"MINTER_ROLE\");\r\n    string private constant SIGNING_DOMAIN = \"LazyNFT-Voucher\";\r\n    string private constant SIGNATURE_VERSION = \"1\";\r\n\r\n    constructor()\r\n        ERC721(\"OpenSea Tokens\", \"OST\")\r\n        EIP712(SIGNING_DOMAIN, SIGNATURE_VERSION)\r\n    {\r\n        admin = payable(msg.sender);\r\n        platformCommission = 2;\r\n        //_setupRole(MINTER_ROLE, minter);\r\n    }\r\n\r\n    ///@notice only owner modifier\r\n    modifier onlyAdmin() {\r\n        require(msg.sender == admin, \"Only admin can access this\");\r\n        _;\r\n    }\r\n\r\n    ///@notice only owner modifier\r\n    modifier onlyOwner(uint256 tokenId) {\r\n        require(msg.sender == ownerOf(tokenId));\r\n        _;\r\n    }\r\n\r\n    // constructor(address marketplaceAddress) ERC721(\"OpenSea Tokens\", \"OST\") {\r\n    // contractAddress = marketplaceAddress;\r\n    // }\r\n\r\n    struct NFTVoucher {\r\n        /// @notice The id of the token to be redeemed. Must be unique - if another token with this ID already exists, the redeem function will revert.\r\n        uint256 tokenId;\r\n        /// @notice The minimum price (in wei) that the NFT creator is willing to accept for the initial sale of this NFT.\r\n        uint256 minPrice;\r\n        /// @notice The metadata URI to associate with this token.\r\n        string uri;\r\n        /// @notice the EIP-712 signature of all other fields in the NFTVoucher struct. For a voucher to be valid, it must be signed by an account with the MINTER_ROLE.\r\n        bytes signature;\r\n    }\r\n\r\n    struct MarketItem {\r\n        uint256 marketItemId;\r\n        uint256 tokenId;\r\n        uint256 royalty;\r\n        address payable creator;\r\n        address payable seller;\r\n        address payable owner;\r\n        IERC20 token;\r\n    }\r\n\r\n    event MarketItemCreated(\r\n        uint256 indexed marketItemId,\r\n        uint256 indexed tokenId,\r\n        uint256 price,\r\n        uint256 royalty,\r\n        address creator,\r\n        address seller,\r\n        address owner\r\n    );\r\n\r\n    event MarketItemResell(\r\n        uint256 indexed marketItemId,\r\n        address seller,\r\n        address owner,\r\n        uint256 price\r\n    );\r\n\r\n    event Start(uint256 tokenId);\r\n    event Bid(uint256 tokenId, address indexed sender, uint256 amount);\r\n    event Withdraw(uint256 tokenId, address indexed bidder, uint256 amount);\r\n    event End(uint256 tokenId, address highestBidder, uint256 highestBid);\r\n\r\n    mapping(uint256 => MarketItem) public allMarketItems;\r\n\r\n    function updatePlatformCommision(uint256 _platformCommission)\r\n        public\r\n        onlyAdmin\r\n    {\r\n        platformCommission = _platformCommission;\r\n    }\r\n\r\n    function updateAdmin(address _admin) public onlyAdmin {\r\n        admin = payable(_admin);\r\n    }\r\n\r\n    // function setupRole(address payable minter) public onlyAdmin {\r\n    // _setupRole(MINTER_ROLE, minter);\r\n    // }\r\n\r\n    /// @notice create a new token\r\n    /// @param voucher : contains details of tokenId, price, uri and signature\r\n    function createAndBuyToken(NFTVoucher calldata voucher, uint256 _royalty)\r\n        public\r\n        payable\r\n        returns (uint256)\r\n    {\r\n        address signer = _verify(voucher); //her signer is the seller\r\n\r\n        // require(\r\n        // hasRole(MINTER_ROLE, signer),\r\n        // \"Signature invalid or unauthorized\"\r\n        // );\r\n        require(msg.sender != signer, \"Sellers can't buy from marketplace\");\r\n        // require(msg.value == _price, \"Must submit asking price to purchase\");\r\n        require(\r\n            msg.value >= voucher.minPrice,\r\n            \"Must submit atleast the min price to purchase\"\r\n        );\r\n        //set a new token id for the token to be minted\r\n        // _tokenIds.increment();\r\n        // uint256 newItemId = _tokenIds.current();\r\n\r\n        _itemIds.increment(); //incrementing our counter.\r\n        uint256 marketItemId = _itemIds.current(); //storing current value of counter in a new local variable.\r\n\r\n        //Initializing the structure MarketItem, and saving it in allMarketItems mapping with our local variable passed as an argument.\r\n        allMarketItems[marketItemId] = MarketItem(\r\n            marketItemId,\r\n            voucher.tokenId,\r\n            _royalty,\r\n            payable(signer), //Only creator will be able to create items to sell.\r\n            payable(signer), //Marketplace is the seller when market item is first created.\r\n            payable(msg.sender), //setting the owner's address to zero, as it still need to be sold on marketplace.\r\n            IERC20(address(0))\r\n        );\r\n\r\n        _mint(signer, voucher.tokenId); //mint the token\r\n        _setTokenURI(voucher.tokenId, voucher.uri); //generate the URI\r\n        // setApprovalForAll(address(this), true); //grant transaction permission to marketplace\r\n        // IERC721(address(this)).transferFrom(seller, address(this), _tokenId);\r\n\r\n        _transfer(signer, msg.sender, voucher.tokenId);\r\n        _transferBuy(msg.value, marketItemId, msg.sender);\r\n\r\n        // buyMarketItem721(marketItemId, msg.value);\r\n\r\n        emit MarketItemCreated(\r\n            marketItemId,\r\n            voucher.tokenId,\r\n            voucher.minPrice,\r\n            _royalty,\r\n            signer,\r\n            signer,\r\n            msg.sender\r\n        );\r\n\r\n        //return token ID\r\n        return voucher.tokenId;\r\n    }\r\n\r\n    function createAndBuyTokenWETH(\r\n        NFTVoucher calldata voucher,\r\n        uint256 _royalty,\r\n        IERC20 _token\r\n    ) public payable returns (uint256) {\r\n        address signer = _verify(voucher); //her signer is the seller\r\n\r\n        // require(\r\n        // hasRole(MINTER_ROLE, signer),\r\n        // \"Signature invalid or unauthorized\"\r\n        // );\r\n        require(msg.sender != signer, \"Sellers can't buy from marketplace\");\r\n        // require(msg.value == _price, \"Must submit asking price to purchase\");\r\n        //set a new token id for the token to be minted\r\n        // _tokenIds.increment();\r\n        // uint256 newItemId = _tokenIds.current();\r\n\r\n        _itemIds.increment(); //incrementing our counter.\r\n        uint256 marketItemId = _itemIds.current(); //storing current value of counter in a new local variable.\r\n\r\n        //Initializing the structure MarketItem, and saving it in allMarketItems mapping with our local variable passed as an argument.\r\n        allMarketItems[marketItemId] = MarketItem(\r\n            marketItemId,\r\n            voucher.tokenId,\r\n            _royalty,\r\n            payable(signer), //Only creator will be able to create items to sell.\r\n            payable(signer), //Marketplace is the seller when market item is first created.\r\n            payable(msg.sender), //setting the owner's address to zero, as it still need to be sold on marketplace.\r\n            _token\r\n        );\r\n\r\n        _mint(signer, voucher.tokenId); //mint the token\r\n        _setTokenURI(voucher.tokenId, voucher.uri); //generate the URI\r\n        // setApprovalForAll(address(this), true); //grant transaction permission to marketplace\r\n        // IERC721(address(this)).transferFrom(seller, address(this), _tokenId);\r\n\r\n        _transfer(signer, msg.sender, voucher.tokenId);\r\n        _transferBuy(voucher.minPrice, marketItemId, msg.sender);\r\n\r\n        // buyMarketItem721(marketItemId, msg.value);\r\n\r\n        emit MarketItemCreated(\r\n            marketItemId,\r\n            voucher.tokenId,\r\n            voucher.minPrice,\r\n            _royalty,\r\n            signer,\r\n            signer,\r\n            msg.sender\r\n        );\r\n\r\n        //return token ID\r\n        return voucher.tokenId;\r\n    }\r\n\r\n    function _transferBuy(\r\n        uint256 _amount,\r\n        uint256 _marketItemId,\r\n        address _recipient\r\n    ) internal {\r\n        uint256 sellingPrice = _amount;\r\n\r\n        uint256 commission = (platformCommission * sellingPrice) / 100;\r\n\r\n        uint256 sellerShare = ((100 - platformCommission) * sellingPrice) / 100;\r\n\r\n        if (allMarketItems[_marketItemId].token == IERC20(address(0))) {\r\n            admin.transfer(commission); //Transfering the listing fee to the admin of the marketplace.\r\n            allMarketItems[_marketItemId].seller.transfer(sellerShare); //transferring the sale amount to the seller after deducting platform commission.\r\n        } else {\r\n            IERC20 token = allMarketItems[_marketItemId].token;\r\n            token.transferFrom(_recipient, address(this), sellingPrice);\r\n            token.transfer(admin, commission);\r\n            token.transfer(allMarketItems[_marketItemId].seller, sellerShare);\r\n        }\r\n    }\r\n\r\n    function secondaryBuyToken(\r\n        uint256 _marketItemId,\r\n        NFTVoucher calldata voucher\r\n    ) public payable {\r\n        address signer = _verify(voucher);\r\n        require(msg.sender != signer, \"Sellers can't buy from marketplace\");\r\n        require(\r\n            signer == allMarketItems[_marketItemId].owner,\r\n            \"Only owner can transfer the NFT\"\r\n        );\r\n        require(\r\n            allMarketItems[_marketItemId].tokenId == voucher.tokenId,\r\n            \"Voucher's tokenId and marketitem's tokenId are not matching\"\r\n        );\r\n        require(\r\n            msg.value >= voucher.minPrice,\r\n            \"Must submit atleast the min price to purchase\"\r\n        );\r\n\r\n        allMarketItems[_marketItemId].seller = payable(signer);\r\n        allMarketItems[_marketItemId].owner = payable(msg.sender);\r\n\r\n        _transfer(signer, msg.sender, allMarketItems[_marketItemId].tokenId);\r\n        _transferSecondaryBuy(msg.value, _marketItemId, msg.sender);\r\n\r\n        emit MarketItemResell(\r\n            _marketItemId,\r\n            signer,\r\n            msg.sender,\r\n            voucher.minPrice\r\n        );\r\n    }\r\n\r\n    function secondaryBuyTokenWETH(\r\n        uint256 _marketItemId,\r\n        NFTVoucher calldata voucher\r\n    ) public payable {\r\n        address signer = _verify(voucher);\r\n        require(msg.sender != signer, \"Sellers can't buy from marketplace\");\r\n        require(\r\n            signer == allMarketItems[_marketItemId].owner,\r\n            \"Only owner can transfer the NFT\"\r\n        );\r\n        require(\r\n            allMarketItems[_marketItemId].tokenId == voucher.tokenId,\r\n            \"Voucher's tokenId and marketitem's tokenId are not matching\"\r\n        );\r\n        // require(\r\n        // msg.value >= voucher.minPrice,\r\n        // \"Must submit atleast the min price to purchase\"\r\n        // );\r\n\r\n        allMarketItems[_marketItemId].seller = payable(signer);\r\n        allMarketItems[_marketItemId].owner = payable(msg.sender);\r\n\r\n        _transfer(signer, msg.sender, allMarketItems[_marketItemId].tokenId);\r\n        _transferSecondaryBuy(voucher.minPrice, _marketItemId, msg.sender);\r\n\r\n        emit MarketItemResell(\r\n            _marketItemId,\r\n            signer,\r\n            msg.sender,\r\n            voucher.minPrice\r\n        );\r\n    }\r\n\r\n    function _transferSecondaryBuy(\r\n        uint256 _amount,\r\n        uint256 _marketItemId,\r\n        address _recipient\r\n    ) internal {\r\n        uint256 royalty = (allMarketItems[_marketItemId].royalty * _amount) /\r\n            100;\r\n\r\n        uint256 transferAfterRoyalty = ((100 -\r\n            allMarketItems[_marketItemId].royalty) * _amount) / 100;\r\n\r\n        // address _to = msg.sender;\r\n\r\n        if (allMarketItems[_marketItemId].token == IERC20(address(0))) {\r\n            allMarketItems[_marketItemId].creator.transfer(royalty); //Sending royalty to the creator.\r\n            allMarketItems[_marketItemId].seller.transfer(transferAfterRoyalty); //Sending royalty to the creator.\r\n        } else {\r\n            IERC20 token = allMarketItems[_marketItemId].token;\r\n            token.transferFrom(_recipient, address(this), _amount);\r\n            token.transfer(allMarketItems[_marketItemId].creator, royalty);\r\n            token.transfer(\r\n                allMarketItems[_marketItemId].seller,\r\n                transferAfterRoyalty\r\n            );\r\n        }\r\n    }\r\n\r\n    function setTokenURI(uint256 tokenId, string memory _tokenURI)\r\n        public\r\n        onlyOwner(tokenId)\r\n    {\r\n        setTokenURI(tokenId, _tokenURI);\r\n    }\r\n\r\n    function burn(uint256 tokenId) public onlyOwner(tokenId) {\r\n        _burn(tokenId);\r\n    }\r\n\r\n    function _hash(NFTVoucher calldata voucher)\r\n        internal\r\n        view\r\n        returns (bytes32)\r\n    {\r\n        return\r\n            _hashTypedDataV4(\r\n                keccak256(\r\n                    abi.encode(\r\n                        keccak256(\r\n                            \"NFTVoucher(uint256 tokenId,uint256 minPrice,string uri)\"\r\n                        ),\r\n                        voucher.tokenId,\r\n                        voucher.minPrice,\r\n                        keccak256(bytes(voucher.uri))\r\n                    )\r\n                )\r\n            );\r\n    }\r\n\r\n    function getChainID() external view returns (uint256) {\r\n        uint256 id;\r\n        assembly {\r\n            id := chainid()\r\n        }\r\n        return id;\r\n    }\r\n\r\n    function _verify(NFTVoucher calldata voucher)\r\n        internal\r\n        view\r\n        returns (address)\r\n    {\r\n        bytes32 digest = _hash(voucher);\r\n        return ECDSA.recover(digest, voucher.signature);\r\n    }\r\n\r\n    // function supportsInterface(bytes4 interfaceId)\r\n    //     public\r\n    //     view\r\n    //     virtual\r\n    //     // override(AccessControl, ERC721)\r\n    //     returns (bool)\r\n    // {\r\n    //     return\r\n    //         ERC721.supportsInterface(interfaceId) ||\r\n    //         AccessControl.supportsInterface(interfaceId);\r\n    // }\r\n\r\n    //////////////////////////////////////////////////////////////////////////////////////////////////////////\r\n    ///auction///\r\n    /////////////////////////////////////////////////////////////////////////////////////////////////////////\r\n\r\n    function start(\r\n        uint256 _nftId,\r\n        uint256 startingBid,\r\n        uint256 auctionPeriodInDays,\r\n        address _token\r\n    ) external {\r\n        require(!started[_nftId], \"Already started!\");\r\n        seller[_nftId] = msg.sender;\r\n        highestBid[_nftId] = startingBid;\r\n        started[_nftId] = true;\r\n        endAt[_nftId] = block.timestamp + (auctionPeriodInDays * 1 days);\r\n        auctionPurchaseToken[_nftId] = _token;\r\n        emit Start(_nftId);\r\n    }\r\n\r\n    function bid(uint256 _nftId, uint256 amount) external payable {\r\n        require(started[_nftId], \"Not started.\");\r\n        require(block.timestamp < endAt[_nftId], \"Ended!\");\r\n        require(\r\n            msg.sender != seller[_nftId],\r\n            \"Sellers are not allowed to call this function\"\r\n        );\r\n\r\n        uint256 currentBid;\r\n\r\n        if (auctionPurchaseToken[_nftId] == address(0)) {\r\n            currentBid = bids[_nftId][msg.sender] + msg.value;\r\n            require(\r\n                currentBid > highestBid[_nftId],\r\n                \"bid value must be more than highest bid\"\r\n            );\r\n        } else {\r\n            IERC20 paymentToken = IERC20(auctionPurchaseToken[_nftId]);\r\n            uint256 allowToPayAmount = paymentToken.allowance(\r\n                msg.sender,\r\n                address(this)\r\n            );\r\n            require(allowToPayAmount >= amount, \"Invalid token allowance\");\r\n\r\n            currentBid = bids[_nftId][msg.sender] + amount;\r\n            require(\r\n                currentBid > highestBid[_nftId],\r\n                \"bid value must be more than highest bid\"\r\n            );\r\n            // Transfer bid\r\n            paymentToken.safeTransferFrom(msg.sender, address(this), amount);\r\n        }\r\n\r\n        bids[_nftId][msg.sender] = currentBid;\r\n        highestBid[_nftId] = currentBid;\r\n        highestBidder[_nftId] = msg.sender;\r\n        emit Bid(_nftId, msg.sender, currentBid);\r\n    }\r\n\r\n    function end(NFTVoucher calldata voucher, address bidder) external {\r\n        require(started[voucher.tokenId], \"You need to start first!\");\r\n        require(\r\n            block.timestamp >= endAt[voucher.tokenId],\r\n            \"Auction is still ongoing!\"\r\n        );\r\n        require(!ended[voucher.tokenId], \"Auction already ended!\");\r\n\r\n        address signer = _verify(voucher);\r\n        require(seller[voucher.tokenId] == signer, \"Invalid signature\");\r\n        require(signer == msg.sender, \"Only a creator can end the auction\");\r\n        require(\r\n            bids[voucher.tokenId][bidder] > 0 || bidder == address(0),\r\n            \"Bidder not found\"\r\n        );\r\n\r\n        // nft.transfer(highestBidder, _nftId); //Transfering the NFT to the winner.\r\n\r\n        //     (bool sent, bytes memory data) = seller.call{value: highestBid}(\"\"); // Paying the seller.\r\n        //     require(sent, \"Could not pay seller!\");\r\n\r\n        ended[voucher.tokenId] = true;\r\n\r\n        /////////////////////////////////////////////////////////////\r\n        _mint(signer, voucher.tokenId); //mint the token\r\n        _setTokenURI(voucher.tokenId, voucher.uri); //generate the URI\r\n        // setApprovalForAll(address(this), true); //grant transaction permission to marketplace\r\n        // IERC721(address(this)).transferFrom(seller, address(this), _tokenId);\r\n\r\n        if (bidder != address(0)) {\r\n            uint256 commission = (platformCommission *\r\n                bids[voucher.tokenId][bidder]) / 100;\r\n            uint256 sellerShare = ((100 - platformCommission) *\r\n                bids[voucher.tokenId][bidder]) / 100;\r\n\r\n            IERC20 paymentToken = IERC20(auctionPurchaseToken[voucher.tokenId]);\r\n            paymentToken.transfer(admin, commission);\r\n            paymentToken.transfer(signer, sellerShare);\r\n\r\n            bids[voucher.tokenId][bidder] = 0;\r\n\r\n            _transfer(signer, bidder, voucher.tokenId);\r\n\r\n            emit End(voucher.tokenId, bidder, bids[voucher.tokenId][bidder]);\r\n        } else {\r\n            uint256 commission = (platformCommission *\r\n                highestBid[voucher.tokenId]) / 100;\r\n            uint256 sellerShare = ((100 - platformCommission) *\r\n                highestBid[voucher.tokenId]) / 100;\r\n\r\n            IERC20 paymentToken = IERC20(auctionPurchaseToken[voucher.tokenId]);\r\n            paymentToken.transfer(admin, commission);\r\n            paymentToken.transfer(signer, sellerShare);\r\n            // admin.transfer(commission);\r\n            // payable(signer).transfer(sellerShare);\r\n            bids[voucher.tokenId][highestBidder[voucher.tokenId]] = 0;\r\n\r\n            _transfer(signer, highestBidder[voucher.tokenId], voucher.tokenId);\r\n\r\n            emit End(\r\n                voucher.tokenId,\r\n                highestBidder[voucher.tokenId],\r\n                highestBid[voucher.tokenId]\r\n            );\r\n        }\r\n\r\n        //_transferBuy(voucher.minPrice, marketItemId, msg.sender);\r\n    }\r\n\r\n    function withdraw(uint256 _nftId) external payable {\r\n        require(ended[_nftId], \"Auction not ended yet!\");\r\n        uint256 bal = bids[_nftId][msg.sender];\r\n        require(bal > 0, \"Zero balance\");\r\n        bids[_nftId][msg.sender] = 0;\r\n\r\n        IERC20 paymentToken = IERC20(auctionPurchaseToken[_nftId]);\r\n        paymentToken.transfer(msg.sender, bal);\r\n\r\n        emit Withdraw(_nftId, msg.sender, bal);\r\n    }\r\n}\r\n",
  "sourcePath": "D:\\Desktop\\immense\\crypto\\defi application\\test (NFT marketplace)\\NFT game\\src\\contracts\\NFT11.sol",
  "compiler": {
    "name": "solc",
    "version": "0.8.4+commit.c7e474f2.Emscripten.clang"
  },
  "schemaVersion": "3.4.7",
  "updatedAt": "2022-06-29T16:36:16.613Z",
  "devdoc": {
    "kind": "dev",
    "methods": {
      "approve(address,uint256)": {
        "details": "See {IERC721-approve}."
      },
      "balanceOf(address)": {
        "details": "See {IERC721-balanceOf}."
      },
      "createAndBuyToken((uint256,uint256,string,bytes),uint256)": {
        "params": {
          "voucher": ": contains details of tokenId, price, uri and signature"
        }
      },
      "getApproved(uint256)": {
        "details": "See {IERC721-getApproved}."
      },
      "isApprovedForAll(address,address)": {
        "details": "See {IERC721-isApprovedForAll}."
      },
      "name()": {
        "details": "See {IERC721Metadata-name}."
      },
      "ownerOf(uint256)": {
        "details": "See {IERC721-ownerOf}."
      },
      "safeTransferFrom(address,address,uint256)": {
        "details": "See {IERC721-safeTransferFrom}."
      },
      "safeTransferFrom(address,address,uint256,bytes)": {
        "details": "See {IERC721-safeTransferFrom}."
      },
      "setApprovalForAll(address,bool)": {
        "details": "See {IERC721-setApprovalForAll}."
      },
      "supportsInterface(bytes4)": {
        "details": "See {IERC165-supportsInterface}."
      },
      "symbol()": {
        "details": "See {IERC721Metadata-symbol}."
      },
      "tokenURI(uint256)": {
        "details": "See {IERC721Metadata-tokenURI}."
      },
      "transferFrom(address,address,uint256)": {
        "details": "See {IERC721-transferFrom}."
      }
    },
    "version": 1
  },
  "userdoc": {
    "kind": "user",
    "methods": {
      "createAndBuyToken((uint256,uint256,string,bytes),uint256)": {
        "notice": "create a new token"
      },
      "start(uint256,uint256,uint256,address)": {
        "notice": "auction///"
      }
    },
    "version": 1
  }
}