{
  "contractName": "ThetanBoxHub",
  "abi": [
    {
      "anonymous": false,
      "inputs": [
        {
          "indexed": true,
          "internalType": "address",
          "name": "previousOwner",
          "type": "address"
        },
        {
          "indexed": true,
          "internalType": "address",
          "name": "newOwner",
          "type": "address"
        }
      ],
      "name": "OwnershipTransferred",
      "type": "event"
    },
    {
      "anonymous": false,
      "inputs": [
        {
          "indexed": true,
          "internalType": "uint256",
          "name": "boxId",
          "type": "uint256"
        },
        {
          "indexed": true,
          "internalType": "address",
          "name": "buyer",
          "type": "address"
        },
        {
          "indexed": false,
          "internalType": "uint256",
          "name": "boxType",
          "type": "uint256"
        },
        {
          "indexed": false,
          "internalType": "uint256",
          "name": "price",
          "type": "uint256"
        },
        {
          "indexed": false,
          "internalType": "address",
          "name": "paymentToken",
          "type": "address"
        }
      ],
      "name": "ThetanBoxPaid",
      "type": "event"
    },
    {
      "inputs": [
        {
          "internalType": "bytes32",
          "name": "_messageHash",
          "type": "bytes32"
        }
      ],
      "name": "getEthSignedMessageHash",
      "outputs": [
        {
          "internalType": "bytes32",
          "name": "",
          "type": "bytes32"
        }
      ],
      "stateMutability": "pure",
      "type": "function"
    },
    {
      "inputs": [],
      "name": "owner",
      "outputs": [
        {
          "internalType": "address",
          "name": "",
          "type": "address"
        }
      ],
      "stateMutability": "view",
      "type": "function"
    },
    {
      "inputs": [],
      "name": "paymentReceivedAddress",
      "outputs": [
        {
          "internalType": "address",
          "name": "",
          "type": "address"
        }
      ],
      "stateMutability": "view",
      "type": "function"
    },
    {
      "inputs": [
        {
          "internalType": "bytes32",
          "name": "_ethSignedMessageHash",
          "type": "bytes32"
        },
        {
          "internalType": "bytes",
          "name": "_signature",
          "type": "bytes"
        }
      ],
      "name": "recoverSigner",
      "outputs": [
        {
          "internalType": "address",
          "name": "",
          "type": "address"
        }
      ],
      "stateMutability": "pure",
      "type": "function"
    },
    {
      "inputs": [],
      "name": "renounceOwnership",
      "outputs": [],
      "stateMutability": "nonpayable",
      "type": "function"
    },
    {
      "inputs": [
        {
          "internalType": "bytes",
          "name": "sig",
          "type": "bytes"
        }
      ],
      "name": "splitSignature",
      "outputs": [
        {
          "internalType": "bytes32",
          "name": "r",
          "type": "bytes32"
        },
        {
          "internalType": "bytes32",
          "name": "s",
          "type": "bytes32"
        },
        {
          "internalType": "uint8",
          "name": "v",
          "type": "uint8"
        }
      ],
      "stateMutability": "pure",
      "type": "function"
    },
    {
      "inputs": [
        {
          "internalType": "address",
          "name": "newOwner",
          "type": "address"
        }
      ],
      "name": "transferOwnership",
      "outputs": [],
      "stateMutability": "nonpayable",
      "type": "function"
    },
    {
      "inputs": [
        {
          "internalType": "address",
          "name": "_paymentReceivedAddress",
          "type": "address"
        }
      ],
      "name": "setPaymentReceivedAddress",
      "outputs": [],
      "stateMutability": "nonpayable",
      "type": "function"
    },
    {
      "inputs": [
        {
          "internalType": "uint256",
          "name": "boxId",
          "type": "uint256"
        },
        {
          "internalType": "uint256",
          "name": "_type",
          "type": "uint256"
        },
        {
          "internalType": "address",
          "name": "userAddress",
          "type": "address"
        },
        {
          "internalType": "uint256",
          "name": "price",
          "type": "uint256"
        },
        {
          "internalType": "address",
          "name": "paymentErc20",
          "type": "address"
        },
        {
          "internalType": "bytes",
          "name": "signature",
          "type": "bytes"
        }
      ],
      "name": "buyBoxWithSignature",
      "outputs": [],
      "stateMutability": "nonpayable",
      "type": "function"
    },
    {
      "inputs": [
        {
          "internalType": "uint256",
          "name": "_boxType",
          "type": "uint256"
        },
        {
          "internalType": "address",
          "name": "_paymentErc20",
          "type": "address"
        },
        {
          "internalType": "uint256",
          "name": "_price",
          "type": "uint256"
        }
      ],
      "name": "getMessageHash",
      "outputs": [
        {
          "internalType": "bytes32",
          "name": "",
          "type": "bytes32"
        }
      ],
      "stateMutability": "pure",
      "type": "function"
    }
  ],
  "bytecode": "0x608060405234801561001057600080fd5b5061002d61002261003260201b60201c565b61003a60201b60201c565b6100fe565b600033905090565b60008060009054906101000a900473ffffffffffffffffffffffffffffffffffffffff169050816000806101000a81548173ffffffffffffffffffffffffffffffffffffffff021916908373ffffffffffffffffffffffffffffffffffffffff1602179055508173ffffffffffffffffffffffffffffffffffffffff168173ffffffffffffffffffffffffffffffffffffffff167f8be0079c531659141344cd1fd0a4f28419497f9722a3daafe3b4186f6b6457e060405160405180910390a35050565b611c048061010d6000396000f3fe608060405234801561001057600080fd5b506004361061009e5760003560e01c806397aba7f91161006657806397aba7f914610121578063a7bb580314610151578063cbb816c514610183578063f2fde38b146101b3578063fa540801146101cf5761009e565b806312905ef9146100a357806340508820146100c157806348af22a7146100dd578063715018a6146100f95780638da5cb5b14610103575b600080fd5b6100ab6101ff565b6040516100b891906113a1565b60405180910390f35b6100db60048036038101906100d69190610ff1565b610225565b005b6100f760048036038101906100f29190610e69565b6105cd565b005b61010161068d565b005b61010b610715565b60405161011891906113a1565b60405180910390f35b61013b60048036038101906101369190610ee4565b61073e565b60405161014891906113a1565b60405180910390f35b61016b60048036038101906101669190610f38565b6107ad565b60405161017a93929190611437565b60405180910390f35b61019d60048036038101906101989190610fa2565b610815565b6040516101aa919061141c565b60405180910390f35b6101cd60048036038101906101c89190610e69565b61084b565b005b6101e960048036038101906101e49190610ebb565b610943565b6040516101f6919061141c565b60405180910390f35b600160009054906101000a900473ffffffffffffffffffffffffffffffffffffffff1681565b61022d610973565b73ffffffffffffffffffffffffffffffffffffffff1661024b610715565b73ffffffffffffffffffffffffffffffffffffffff16146102a1576040517f08c379a000000000000000000000000000000000000000000000000000000000815260040161029890611575565b60405180910390fd5b6102aa8561097b565b156102ea576040517f08c379a00000000000000000000000000000000000000000000000000000000081526004016102e190611595565b60405180910390fd5b6000861161032d576040517f08c379a000000000000000000000000000000000000000000000000000000000815260040161032490611515565b60405180910390fd5b60008411610370576040517f08c379a0000000000000000000000000000000000000000000000000000000008152600401610367906114d5565b60405180910390fd5b600061037d878587610815565b9050600061038a82610943565b90508673ffffffffffffffffffffffffffffffffffffffff166103f18286868080601f016020809104026020016040519081016040528093929190818152602001838380828437600081840152601f19601f8201169050808301925050505050505061073e565b73ffffffffffffffffffffffffffffffffffffffff1614610447576040517f08c379a000000000000000000000000000000000000000000000000000000000815260040161043e90611555565b60405180910390fd5b600085905060008173ffffffffffffffffffffffffffffffffffffffff1663dd62ed3e8a306040518363ffffffff1660e01b81526004016104899291906113bc565b60206040518083038186803b1580156104a157600080fd5b505afa1580156104b5573d6000803e3d6000fd5b505050506040513d601f19601f820116820180604052508101906104d99190610f79565b90508781101561051e576040517f08c379a0000000000000000000000000000000000000000000000000000000008152600401610515906115d5565b60405180910390fd5b61056d89600160009054906101000a900473ffffffffffffffffffffffffffffffffffffffff168a8573ffffffffffffffffffffffffffffffffffffffff16610994909392919063ffffffff16565b8873ffffffffffffffffffffffffffffffffffffffff168b7f27667464cb4d9326116216617dede1c421e9b060ea057688bef2462156b1c6898c8b8b6040516105b893929190611635565b60405180910390a35050505050505050505050565b6105d5610973565b73ffffffffffffffffffffffffffffffffffffffff166105f3610715565b73ffffffffffffffffffffffffffffffffffffffff1614610649576040517f08c379a000000000000000000000000000000000000000000000000000000000815260040161064090611575565b60405180910390fd5b80600160006101000a81548173ffffffffffffffffffffffffffffffffffffffff021916908373ffffffffffffffffffffffffffffffffffffffff16021790555050565b610695610973565b73ffffffffffffffffffffffffffffffffffffffff166106b3610715565b73ffffffffffffffffffffffffffffffffffffffff1614610709576040517f08c379a000000000000000000000000000000000000000000000000000000000815260040161070090611575565b60405180910390fd5b6107136000610a1d565b565b60008060009054906101000a900473ffffffffffffffffffffffffffffffffffffffff16905090565b60008060008061074d856107ad565b92509250925060018682858560405160008152602001604052604051610776949392919061146e565b6020604051602081039080840390855afa158015610798573d6000803e3d6000fd5b50505060206040510351935050505092915050565b600080600060418451146107f6576040517f08c379a00000000000000000000000000000000000000000000000000000000081526004016107ed906115f5565b60405180910390fd5b6020840151925060408401519150606084015160001a90509193909250565b600083838360405160200161082c93929190611364565b6040516020818303038152906040528051906020012090509392505050565b610853610973565b73ffffffffffffffffffffffffffffffffffffffff16610871610715565b73ffffffffffffffffffffffffffffffffffffffff16146108c7576040517f08c379a00000000000000000000000000000000000000000000000000000000081526004016108be90611575565b60405180910390fd5b600073ffffffffffffffffffffffffffffffffffffffff168173ffffffffffffffffffffffffffffffffffffffff161415610937576040517f08c379a000000000000000000000000000000000000000000000000000000000815260040161092e906114f5565b60405180910390fd5b61094081610a1d565b50565b600081604051602001610956919061133e565b604051602081830303815290604052805190602001209050919050565b600033905090565b600080823b905060008163ffffffff1611915050919050565b610a17846323b872dd60e01b8585856040516024016109b5939291906113e5565b604051602081830303815290604052907bffffffffffffffffffffffffffffffffffffffffffffffffffffffff19166020820180517bffffffffffffffffffffffffffffffffffffffffffffffffffffffff8381831617835250505050610ae1565b50505050565b60008060009054906101000a900473ffffffffffffffffffffffffffffffffffffffff169050816000806101000a81548173ffffffffffffffffffffffffffffffffffffffff021916908373ffffffffffffffffffffffffffffffffffffffff1602179055508173ffffffffffffffffffffffffffffffffffffffff168173ffffffffffffffffffffffffffffffffffffffff167f8be0079c531659141344cd1fd0a4f28419497f9722a3daafe3b4186f6b6457e060405160405180910390a35050565b6000610b43826040518060400160405280602081526020017f5361666545524332303a206c6f772d6c6576656c2063616c6c206661696c65648152508573ffffffffffffffffffffffffffffffffffffffff16610ba89092919063ffffffff16565b9050600081511115610ba35780806020019051810190610b639190610e92565b610ba2576040517f08c379a0000000000000000000000000000000000000000000000000000000008152600401610b9990611615565b60405180910390fd5b5b505050565b6060610bb78484600085610bc0565b90509392505050565b606082471015610c05576040517f08c379a0000000000000000000000000000000000000000000000000000000008152600401610bfc90611535565b60405180910390fd5b610c0e85610cd4565b610c4d576040517f08c379a0000000000000000000000000000000000000000000000000000000008152600401610c44906115b5565b60405180910390fd5b6000808673ffffffffffffffffffffffffffffffffffffffff168587604051610c769190611327565b60006040518083038185875af1925050503d8060008114610cb3576040519150601f19603f3d011682016040523d82523d6000602084013e610cb8565b606091505b5091509150610cc8828286610ce7565b92505050949350505050565b600080823b905060008111915050919050565b60608315610cf757829050610d47565b600083511115610d0a5782518084602001fd5b816040517f08c379a0000000000000000000000000000000000000000000000000000000008152600401610d3e91906114b3565b60405180910390fd5b9392505050565b6000610d61610d5c84611691565b61166c565b905082815260208101848484011115610d7957600080fd5b610d8484828561175e565b509392505050565b600081359050610d9b81611b72565b92915050565b600081519050610db081611b89565b92915050565b600081359050610dc581611ba0565b92915050565b60008083601f840112610ddd57600080fd5b8235905067ffffffffffffffff811115610df657600080fd5b602083019150836001820283011115610e0e57600080fd5b9250929050565b600082601f830112610e2657600080fd5b8135610e36848260208601610d4e565b91505092915050565b600081359050610e4e81611bb7565b92915050565b600081519050610e6381611bb7565b92915050565b600060208284031215610e7b57600080fd5b6000610e8984828501610d8c565b91505092915050565b600060208284031215610ea457600080fd5b6000610eb284828501610da1565b91505092915050565b600060208284031215610ecd57600080fd5b6000610edb84828501610db6565b91505092915050565b60008060408385031215610ef757600080fd5b6000610f0585828601610db6565b925050602083013567ffffffffffffffff811115610f2257600080fd5b610f2e85828601610e15565b9150509250929050565b600060208284031215610f4a57600080fd5b600082013567ffffffffffffffff811115610f6457600080fd5b610f7084828501610e15565b91505092915050565b600060208284031215610f8b57600080fd5b6000610f9984828501610e54565b91505092915050565b600080600060608486031215610fb757600080fd5b6000610fc586828701610e3f565b9350506020610fd686828701610d8c565b9250506040610fe786828701610e3f565b9150509250925092565b600080600080600080600060c0888a03121561100c57600080fd5b600061101a8a828b01610e3f565b975050602061102b8a828b01610e3f565b965050604061103c8a828b01610d8c565b955050606061104d8a828b01610e3f565b945050608061105e8a828b01610d8c565b93505060a088013567ffffffffffffffff81111561107b57600080fd5b6110878a828b01610dcb565b925092505092959891949750929550565b6110a1816116ff565b82525050565b6110b86110b3826116ff565b6117d1565b82525050565b6110c78161171d565b82525050565b6110de6110d98261171d565b6117e3565b82525050565b60006110ef826116c2565b6110f981856116d8565b935061110981856020860161176d565b80840191505092915050565b6000611120826116cd565b61112a81856116e3565b935061113a81856020860161176d565b61114381611838565b840191505092915050565b600061115b601c836116f4565b915061116682611856565b601c82019050919050565b600061117e6028836116e3565b91506111898261187f565b604082019050919050565b60006111a16026836116e3565b91506111ac826118ce565b604082019050919050565b60006111c46022836116e3565b91506111cf8261191d565b604082019050919050565b60006111e76026836116e3565b91506111f28261196c565b604082019050919050565b600061120a6029836116e3565b9150611215826119bb565b604082019050919050565b600061122d6020836116e3565b915061123882611a0a565b602082019050919050565b60006112506039836116e3565b915061125b82611a33565b604082019050919050565b6000611273601d836116e3565b915061127e82611a82565b602082019050919050565b60006112966029836116e3565b91506112a182611aab565b604082019050919050565b60006112b96018836116e3565b91506112c482611afa565b602082019050919050565b60006112dc602a836116e3565b91506112e782611b23565b604082019050919050565b6112fb81611747565b82525050565b61131261130d82611747565b6117ff565b82525050565b61132181611751565b82525050565b600061133382846110e4565b915081905092915050565b60006113498261114e565b915061135582846110cd565b60208201915081905092915050565b60006113708286611301565b60208201915061138082856110a7565b6014820191506113908284611301565b602082019150819050949350505050565b60006020820190506113b66000830184611098565b92915050565b60006040820190506113d16000830185611098565b6113de6020830184611098565b9392505050565b60006060820190506113fa6000830186611098565b6114076020830185611098565b61141460408301846112f2565b949350505050565b600060208201905061143160008301846110be565b92915050565b600060608201905061144c60008301866110be565b61145960208301856110be565b6114666040830184611318565b949350505050565b600060808201905061148360008301876110be565b6114906020830186611318565b61149d60408301856110be565b6114aa60608301846110be565b95945050505050565b600060208201905081810360008301526114cd8184611115565b905092915050565b600060208201905081810360008301526114ee81611171565b9050919050565b6000602082019050818103600083015261150e81611194565b9050919050565b6000602082019050818103600083015261152e816111b7565b9050919050565b6000602082019050818103600083015261154e816111da565b9050919050565b6000602082019050818103600083015261156e816111fd565b9050919050565b6000602082019050818103600083015261158e81611220565b9050919050565b600060208201905081810360008301526115ae81611243565b9050919050565b600060208201905081810360008301526115ce81611266565b9050919050565b600060208201905081810360008301526115ee81611289565b9050919050565b6000602082019050818103600083015261160e816112ac565b9050919050565b6000602082019050818103600083015261162e816112cf565b9050919050565b600060608201905061164a60008301866112f2565b61165760208301856112f2565b6116646040830184611098565b949350505050565b6000611676611687565b905061168282826117a0565b919050565b6000604051905090565b600067ffffffffffffffff8211156116ac576116ab611809565b5b6116b582611838565b9050602081019050919050565b600081519050919050565b600081519050919050565b600081905092915050565b600082825260208201905092915050565b600081905092915050565b600061170a82611727565b9050919050565b60008115159050919050565b6000819050919050565b600073ffffffffffffffffffffffffffffffffffffffff82169050919050565b6000819050919050565b600060ff82169050919050565b82818337600083830152505050565b60005b8381101561178b578082015181840152602081019050611770565b8381111561179a576000848401525b50505050565b6117a982611838565b810181811067ffffffffffffffff821117156117c8576117c7611809565b5b80604052505050565b60006117dc826117ed565b9050919050565b6000819050919050565b60006117f882611849565b9050919050565b6000819050919050565b7f4e487b7100000000000000000000000000000000000000000000000000000000600052604160045260246000fd5b6000601f19601f8301169050919050565b60008160601b9050919050565b7f19457468657265756d205369676e6564204d6573736167653a0a333200000000600082015250565b7f54686574616e426f785061796d656e743a20496e76616c6964207061796d656e60008201527f7420616d6f756e74000000000000000000000000000000000000000000000000602082015250565b7f4f776e61626c653a206e6577206f776e657220697320746865207a65726f206160008201527f6464726573730000000000000000000000000000000000000000000000000000602082015250565b7f54686574616e426f785061796d656e743a20496e76616c696420626f7820747960008201527f7065000000000000000000000000000000000000000000000000000000000000602082015250565b7f416464726573733a20696e73756666696369656e742062616c616e636520666f60008201527f722063616c6c0000000000000000000000000000000000000000000000000000602082015250565b7f54686574616e426f785061796d656e743a20696e76616c69642062757965722060008201527f7369676e61747572650000000000000000000000000000000000000000000000602082015250565b7f4f776e61626c653a2063616c6c6572206973206e6f7420746865206f776e6572600082015250565b7f54686574616e426f785061796d656e743a204f6e6c792075736572206164647260008201527f65737320697320616c6c6f77656420746f2062757920626f7800000000000000602082015250565b7f416464726573733a2063616c6c20746f206e6f6e2d636f6e7472616374000000600082015250565b7f54686574616e426f785061796d656e743a20496e76616c696420746f6b656e2060008201527f616c6c6f77616e63650000000000000000000000000000000000000000000000602082015250565b7f696e76616c6964207369676e6174757265206c656e6774680000000000000000600082015250565b7f5361666545524332303a204552433230206f7065726174696f6e20646964206e60008201527f6f74207375636365656400000000000000000000000000000000000000000000602082015250565b611b7b816116ff565b8114611b8657600080fd5b50565b611b9281611711565b8114611b9d57600080fd5b50565b611ba98161171d565b8114611bb457600080fd5b50565b611bc081611747565b8114611bcb57600080fd5b5056fea26469706673582212204d40603c114c261ff710e6e1ed6a17d1ac825c83c85f61dde4818ac6228b94a864736f6c63430008040033",
  "immutableReferences": {},
  "source": "// SPDX-License-Identifier: MIT\r\npragma solidity ^0.8.0;\r\n\r\nimport \"@openzeppelin/contracts/token/ERC20/IERC20.sol\";\r\nimport \"@openzeppelin/contracts/token/ERC20/utils/SafeERC20.sol\";\r\nimport \"@openzeppelin/contracts/access/Ownable.sol\";\r\nimport \"./HasSignature.sol\";\r\n\r\ncontract ThetanBoxHub is Ownable, HasSignature {\r\n    using SafeERC20 for IERC20;\r\n\r\n    event ThetanBoxPaid(\r\n        uint256 indexed boxId,\r\n        address indexed buyer,\r\n        uint256 boxType,\r\n        uint256 price,\r\n        address paymentToken\r\n    );\r\n\r\n    address public paymentReceivedAddress;\r\n\r\n    function setPaymentReceivedAddress(address _paymentReceivedAddress)\r\n        public\r\n        onlyOwner\r\n    {\r\n        paymentReceivedAddress = _paymentReceivedAddress;\r\n    }\r\n\r\n    /**\r\n     * @dev Thetan box payment buy function\r\n     */\r\n    function buyBoxWithSignature(\r\n        uint256 boxId,\r\n        uint256 _type,\r\n        address userAddress,\r\n        uint256 price,\r\n        address paymentErc20,\r\n        bytes calldata signature\r\n    ) external onlyOwner {\r\n        require(\r\n            !isContract(userAddress),\r\n            \"ThetanBoxPayment: Only user address is allowed to buy box\"\r\n        );\r\n        require(_type > 0, \"ThetanBoxPayment: Invalid box type\");\r\n        require(price > 0, \"ThetanBoxPayment: Invalid payment amount\");\r\n        bytes32 criteriaMessageHash = getMessageHash(\r\n            _type,\r\n            paymentErc20,\r\n            price\r\n        );\r\n\r\n        bytes32 ethSignedMessageHash = getEthSignedMessageHash(\r\n            criteriaMessageHash\r\n        );\r\n\r\n        require(\r\n            recoverSigner(ethSignedMessageHash, signature) == userAddress,\r\n            \"ThetanBoxPayment: invalid buyer signature\"\r\n        );\r\n\r\n        IERC20 paymentToken = IERC20(paymentErc20);\r\n        uint256 allowToPayAmount = paymentToken.allowance(\r\n            userAddress,\r\n            address(this)\r\n        );\r\n        require(\r\n            allowToPayAmount >= price,\r\n            \"ThetanBoxPayment: Invalid token allowance\"\r\n        );\r\n        // Transfer payment\r\n        paymentToken.safeTransferFrom(\r\n            userAddress,\r\n            paymentReceivedAddress,\r\n            price\r\n        );\r\n        // Emit payment event\r\n        emit ThetanBoxPaid(boxId, userAddress, _type, price, paymentErc20);\r\n    }\r\n\r\n    function getMessageHash(\r\n        uint256 _boxType,\r\n        address _paymentErc20,\r\n        uint256 _price\r\n    ) public pure returns (bytes32) {\r\n        return keccak256(abi.encodePacked(_boxType, _paymentErc20, _price));\r\n    }\r\n\r\n    /**\r\n     * @dev Identify an address is user address or contract address\r\n     */\r\n    function isContract(address _address) private view returns (bool) {\r\n        uint32 size;\r\n        assembly {\r\n            size := extcodesize(_address)\r\n        }\r\n        return (size > 0);\r\n    }\r\n}\r\n",
  "sourcePath": "D:\\Desktop\\immense\\crypto\\defi application\\test (NFT marketplace)\\NFT game\\src\\contracts\\ThetanBoxHub.sol",
  "compiler": {
    "name": "solc",
    "version": "0.8.4+commit.c7e474f2.Emscripten.clang"
  },
  "schemaVersion": "3.4.7",
  "updatedAt": "2022-06-29T16:36:16.772Z",
  "devdoc": {
    "kind": "dev",
    "methods": {
      "buyBoxWithSignature(uint256,uint256,address,uint256,address,bytes)": {
        "details": "Thetan box payment buy function"
      },
      "owner()": {
        "details": "Returns the address of the current owner."
      },
      "renounceOwnership()": {
        "details": "Leaves the contract without owner. It will not be possible to call `onlyOwner` functions anymore. Can only be called by the current owner. NOTE: Renouncing ownership will leave the contract without an owner, thereby removing any functionality that is only available to the owner."
      },
      "transferOwnership(address)": {
        "details": "Transfers ownership of the contract to a new account (`newOwner`). Can only be called by the current owner."
      }
    },
    "version": 1
  },
  "userdoc": {
    "kind": "user",
    "methods": {},
    "version": 1
  }
}